{
  "address": "0x24DD71aDd0026E924e0Fc7a7701A851e2b9c09C4",
  "abi": [
    {
      "inputs": [
        {
          "internalType": "address",
          "name": "_baseToken",
          "type": "address"
        },
        {
          "internalType": "address",
          "name": "_swapToken",
          "type": "address"
        },
        {
          "internalType": "uint256",
          "name": "_initialExchangeRate",
          "type": "uint256"
        },
        {
          "internalType": "address",
          "name": "_devAddress",
          "type": "address"
        },
        {
          "internalType": "address",
          "name": "_stewardCouncilAddress",
          "type": "address"
        }
      ],
      "stateMutability": "nonpayable",
      "type": "constructor"
    },
    {
      "inputs": [
        {
          "internalType": "address",
          "name": "target",
          "type": "address"
        }
      ],
      "name": "AddressEmptyCode",
      "type": "error"
    },
    {
      "inputs": [
        {
          "internalType": "address",
          "name": "account",
          "type": "address"
        }
      ],
      "name": "AddressInsufficientBalance",
      "type": "error"
    },
    {
      "inputs": [],
      "name": "AppChangeCooldownStillActive",
      "type": "error"
    },
    {
      "inputs": [],
      "name": "DailySellLimitExceeded",
      "type": "error"
    },
    {
      "inputs": [],
      "name": "ETHTransferFailed",
      "type": "error"
    },
    {
      "inputs": [],
      "name": "EnforcedPause",
      "type": "error"
    },
    {
      "inputs": [],
      "name": "ExceedsMaxWhitelistedCollections",
      "type": "error"
    },
    {
      "inputs": [],
      "name": "ExpectedPause",
      "type": "error"
    },
    {
      "inputs": [],
      "name": "FailedInnerCall",
      "type": "error"
    },
    {
      "inputs": [],
      "name": "FeeCooldownActive",
      "type": "error"
    },
    {
      "inputs": [],
      "name": "InsufficientBalance",
      "type": "error"
    },
    {
      "inputs": [],
      "name": "InsufficientFuelForUpgrade",
      "type": "error"
    },
    {
      "inputs": [],
      "name": "InsufficientPointsForUpgrade",
      "type": "error"
    },
    {
      "inputs": [],
      "name": "InvalidBurnAmount",
      "type": "error"
    },
    {
      "inputs": [],
      "name": "InvalidCooldown",
      "type": "error"
    },
    {
      "inputs": [],
      "name": "InvalidDailyLimitMultiplier",
      "type": "error"
    },
    {
      "inputs": [],
      "name": "InvalidDevAddress",
      "type": "error"
    },
    {
      "inputs": [],
      "name": "InvalidExchangeRate",
      "type": "error"
    },
    {
      "inputs": [],
      "name": "InvalidFeeBPS",
      "type": "error"
    },
    {
      "inputs": [],
      "name": "InvalidFuelRate",
      "type": "error"
    },
    {
      "inputs": [],
      "name": "InvalidPointsAwarded",
      "type": "error"
    },
    {
      "inputs": [],
      "name": "InvalidQualifyingBuyThreshold",
      "type": "error"
    },
    {
      "inputs": [],
      "name": "InvalidUpgradeFuelThreshold",
      "type": "error"
    },
    {
      "inputs": [],
      "name": "InvalidUpgradePointsThreshold",
      "type": "error"
    },
    {
      "inputs": [],
      "name": "MaxStageReached",
      "type": "error"
    },
    {
      "inputs": [],
      "name": "MinimumAmountNotMet",
      "type": "error"
    },
    {
      "inputs": [],
      "name": "NoValidKeyForUserFound",
      "type": "error"
    },
    {
      "inputs": [
        {
          "internalType": "address",
          "name": "owner",
          "type": "address"
        }
      ],
      "name": "OwnableInvalidOwner",
      "type": "error"
    },
    {
      "inputs": [
        {
          "internalType": "address",
          "name": "account",
          "type": "address"
        }
      ],
      "name": "OwnableUnauthorizedAccount",
      "type": "error"
    },
    {
      "inputs": [],
      "name": "RateCooldownActive",
      "type": "error"
    },
    {
      "inputs": [],
      "name": "ReentrancyGuardReentrantCall",
      "type": "error"
    },
    {
      "inputs": [
        {
          "internalType": "address",
          "name": "token",
          "type": "address"
        }
      ],
      "name": "SafeERC20FailedOperation",
      "type": "error"
    },
    {
      "inputs": [],
      "name": "StageCooldownActive",
      "type": "error"
    },
    {
      "inputs": [],
      "name": "StageSellLimitExceeded",
      "type": "error"
    },
    {
      "inputs": [],
      "name": "UnauthorizedCaller",
      "type": "error"
    },
    {
      "inputs": [],
      "name": "WhitelistedCollectionsAlreadyInitialized",
      "type": "error"
    },
    {
      "anonymous": false,
      "inputs": [
        {
          "indexed": true,
          "internalType": "address",
          "name": "newDevAddress",
          "type": "address"
        }
      ],
      "name": "DevAddressUpdated",
      "type": "event"
    },
    {
      "anonymous": false,
      "inputs": [
        {
          "indexed": true,
          "internalType": "address",
          "name": "to",
          "type": "address"
        },
        {
          "indexed": false,
          "internalType": "uint256",
          "name": "amount",
          "type": "uint256"
        }
      ],
      "name": "ETHWithdrawn",
      "type": "event"
    },
    {
      "anonymous": false,
      "inputs": [
        {
          "indexed": false,
          "internalType": "uint256",
          "name": "newRate",
          "type": "uint256"
        }
      ],
      "name": "ExchangeRateUpdated",
      "type": "event"
    },
    {
      "anonymous": false,
      "inputs": [
        {
          "indexed": false,
          "internalType": "uint256",
          "name": "rateChangeCooldown",
          "type": "uint256"
        },
        {
          "indexed": false,
          "internalType": "uint256",
          "name": "appChangeCooldown",
          "type": "uint256"
        }
      ],
      "name": "FeeConfigUpdated",
      "type": "event"
    },
    {
      "anonymous": false,
      "inputs": [
        {
          "indexed": false,
          "internalType": "uint256",
          "name": "newBuyFeeBPS",
          "type": "uint256"
        },
        {
          "indexed": false,
          "internalType": "uint256",
          "name": "newSellFeeBPS",
          "type": "uint256"
        }
      ],
      "name": "FeeRatesUpdated",
      "type": "event"
    },
    {
      "anonymous": false,
      "inputs": [
        {
          "indexed": true,
          "internalType": "address",
          "name": "to",
          "type": "address"
        },
        {
          "indexed": false,
          "internalType": "uint256",
          "name": "baseTokenFees",
          "type": "uint256"
        },
        {
          "indexed": false,
          "internalType": "uint256",
          "name": "swapTokenFees",
          "type": "uint256"
        }
      ],
      "name": "FeesWithdrawn",
      "type": "event"
    },
    {
      "anonymous": false,
      "inputs": [
        {
          "indexed": true,
          "internalType": "address",
          "name": "user",
          "type": "address"
        },
        {
          "indexed": false,
          "internalType": "uint256",
          "name": "burnAmount",
          "type": "uint256"
        },
        {
          "indexed": false,
          "internalType": "uint256",
          "name": "newFuel",
          "type": "uint256"
        }
      ],
      "name": "Lit",
      "type": "event"
    },
    {
      "anonymous": false,
      "inputs": [
        {
          "indexed": true,
          "internalType": "address",
          "name": "previousOwner",
          "type": "address"
        },
        {
          "indexed": true,
          "internalType": "address",
          "name": "newOwner",
          "type": "address"
        }
      ],
      "name": "OwnershipTransferred",
      "type": "event"
    },
    {
      "anonymous": false,
      "inputs": [
        {
          "indexed": false,
          "internalType": "address",
          "name": "account",
          "type": "address"
        }
      ],
      "name": "Paused",
      "type": "event"
    },
    {
      "anonymous": false,
      "inputs": [
        {
          "indexed": true,
          "internalType": "enum IDGTokenVendor.UserStage",
          "name": "stage",
          "type": "uint8"
        },
        {
          "components": [
            {
              "internalType": "uint256",
              "name": "burnAmount",
              "type": "uint256"
            },
            {
              "internalType": "uint256",
              "name": "upgradePointsThreshold",
              "type": "uint256"
            },
            {
              "internalType": "uint256",
              "name": "upgradeFuelThreshold",
              "type": "uint256"
            },
            {
              "internalType": "uint256",
              "name": "fuelRate",
              "type": "uint256"
            },
            {
              "internalType": "uint256",
              "name": "pointsAwarded",
              "type": "uint256"
            },
            {
              "internalType": "uint256",
              "name": "qualifyingBuyThreshold",
              "type": "uint256"
            },
            {
              "internalType": "uint256",
              "name": "maxSellBps",
              "type": "uint256"
            },
            {
              "internalType": "uint256",
              "name": "dailyLimitMultiplier",
              "type": "uint256"
            }
          ],
          "indexed": false,
          "internalType": "struct IDGTokenVendor.StageConfig",
          "name": "oldConfig",
          "type": "tuple"
        },
        {
          "components": [
            {
              "internalType": "uint256",
              "name": "burnAmount",
              "type": "uint256"
            },
            {
              "internalType": "uint256",
              "name": "upgradePointsThreshold",
              "type": "uint256"
            },
            {
              "internalType": "uint256",
              "name": "upgradeFuelThreshold",
              "type": "uint256"
            },
            {
              "internalType": "uint256",
              "name": "fuelRate",
              "type": "uint256"
            },
            {
              "internalType": "uint256",
              "name": "pointsAwarded",
              "type": "uint256"
            },
            {
              "internalType": "uint256",
              "name": "qualifyingBuyThreshold",
              "type": "uint256"
            },
            {
              "internalType": "uint256",
              "name": "maxSellBps",
              "type": "uint256"
            },
            {
              "internalType": "uint256",
              "name": "dailyLimitMultiplier",
              "type": "uint256"
            }
          ],
          "indexed": false,
          "internalType": "struct IDGTokenVendor.StageConfig",
          "name": "newConfig",
          "type": "tuple"
        }
      ],
      "name": "StageConfigUpdated",
      "type": "event"
    },
    {
      "anonymous": false,
      "inputs": [
        {
          "indexed": false,
          "internalType": "string",
          "name": "parameter",
          "type": "string"
        },
        {
          "indexed": false,
          "internalType": "uint256",
          "name": "value",
          "type": "uint256"
        }
      ],
      "name": "StageConstantsUpdated",
      "type": "event"
    },
    {
      "anonymous": false,
      "inputs": [
        {
          "indexed": true,
          "internalType": "address",
          "name": "user",
          "type": "address"
        },
        {
          "indexed": false,
          "internalType": "enum IDGTokenVendor.UserStage",
          "name": "newStage",
          "type": "uint8"
        }
      ],
      "name": "StageUpgraded",
      "type": "event"
    },
    {
      "anonymous": false,
      "inputs": [
        {
          "indexed": true,
          "internalType": "address",
          "name": "newStewardCouncilAddress",
          "type": "address"
        }
      ],
      "name": "StewardCouncilAddressUpdated",
      "type": "event"
    },
    {
      "anonymous": false,
      "inputs": [
        {
          "indexed": true,
          "internalType": "address",
          "name": "buyer",
          "type": "address"
        },
        {
          "indexed": false,
          "internalType": "uint256",
          "name": "baseTokenAmount",
          "type": "uint256"
        },
        {
          "indexed": false,
          "internalType": "uint256",
          "name": "swapTokenAmount",
          "type": "uint256"
        },
        {
          "indexed": false,
          "internalType": "uint256",
          "name": "fee",
          "type": "uint256"
        }
      ],
      "name": "TokensPurchased",
      "type": "event"
    },
    {
      "anonymous": false,
      "inputs": [
        {
          "indexed": true,
          "internalType": "address",
          "name": "seller",
          "type": "address"
        },
        {
          "indexed": false,
          "internalType": "uint256",
          "name": "swapTokenAmount",
          "type": "uint256"
        },
        {
          "indexed": false,
          "internalType": "uint256",
          "name": "baseTokenAmount",
          "type": "uint256"
        },
        {
          "indexed": false,
          "internalType": "uint256",
          "name": "fee",
          "type": "uint256"
        }
      ],
      "name": "TokensSold",
      "type": "event"
    },
    {
      "anonymous": false,
      "inputs": [
        {
          "indexed": false,
          "internalType": "address",
          "name": "account",
          "type": "address"
        }
      ],
      "name": "Unpaused",
      "type": "event"
    },
    {
      "anonymous": false,
      "inputs": [
        {
          "indexed": true,
          "internalType": "address",
          "name": "collectionAddress",
          "type": "address"
        }
      ],
      "name": "WhitelistedCollectionAdded",
      "type": "event"
    },
    {
      "anonymous": false,
      "inputs": [
        {
          "indexed": true,
          "internalType": "address",
          "name": "collectionAddress",
          "type": "address"
        }
      ],
      "name": "WhitelistedCollectionRemoved",
      "type": "event"
    },
    {
      "inputs": [],
      "name": "BASIS_POINTS",
      "outputs": [
        {
          "internalType": "uint256",
          "name": "",
          "type": "uint256"
        }
      ],
      "stateMutability": "view",
      "type": "function"
    },
    {
      "inputs": [],
      "name": "BURN_ADDRESS",
      "outputs": [
        {
          "internalType": "address",
          "name": "",
          "type": "address"
        }
      ],
      "stateMutability": "view",
      "type": "function"
    },
    {
      "inputs": [],
      "name": "MAX_DAILY_MULTIPLIER",
      "outputs": [
        {
          "internalType": "uint256",
          "name": "",
          "type": "uint256"
        }
      ],
      "stateMutability": "view",
      "type": "function"
    },
    {
      "inputs": [],
      "name": "MAX_FUEL_LIMIT",
      "outputs": [
        {
          "internalType": "uint256",
          "name": "",
          "type": "uint256"
        }
      ],
      "stateMutability": "view",
      "type": "function"
    },
    {
      "inputs": [],
      "name": "MAX_FUEL_RATE",
      "outputs": [
        {
          "internalType": "uint256",
          "name": "",
          "type": "uint256"
        }
      ],
      "stateMutability": "view",
      "type": "function"
    },
    {
      "inputs": [],
      "name": "MAX_POINTS_AWARDED",
      "outputs": [
        {
          "internalType": "uint256",
          "name": "",
          "type": "uint256"
        }
      ],
      "stateMutability": "view",
      "type": "function"
    },
    {
      "inputs": [],
      "name": "MAX_SELL_BPS_LIMIT",
      "outputs": [
        {
          "internalType": "uint256",
          "name": "",
          "type": "uint256"
        }
      ],
      "stateMutability": "view",
      "type": "function"
    },
    {
      "inputs": [],
      "name": "MAX_WHITELISTED_COLLECTIONS",
      "outputs": [
        {
          "internalType": "uint256",
          "name": "",
          "type": "uint256"
        }
      ],
      "stateMutability": "view",
      "type": "function"
    },
    {
      "inputs": [
        {
          "internalType": "uint256",
          "name": "amount",
          "type": "uint256"
        }
      ],
      "name": "buyTokens",
      "outputs": [],
      "stateMutability": "nonpayable",
      "type": "function"
    },
    {
      "inputs": [],
      "name": "canChangeExchangeRate",
      "outputs": [
        {
          "internalType": "bool",
          "name": "",
          "type": "bool"
        }
      ],
      "stateMutability": "view",
      "type": "function"
    },
    {
      "inputs": [],
      "name": "canChangeFeeRates",
      "outputs": [
        {
          "internalType": "bool",
          "name": "",
          "type": "bool"
        }
      ],
      "stateMutability": "view",
      "type": "function"
    },
    {
      "inputs": [],
      "name": "getExchangeRate",
      "outputs": [
        {
          "internalType": "uint256",
          "name": "",
          "type": "uint256"
        }
      ],
      "stateMutability": "view",
      "type": "function"
    },
    {
      "inputs": [],
      "name": "getFeeConfig",
      "outputs": [
        {
          "components": [
            {
              "internalType": "uint256",
              "name": "maxFeeBps",
              "type": "uint256"
            },
            {
              "internalType": "uint256",
              "name": "minFeeBps",
              "type": "uint256"
            },
            {
              "internalType": "uint256",
              "name": "buyFeeBps",
              "type": "uint256"
            },
            {
              "internalType": "uint256",
              "name": "sellFeeBps",
              "type": "uint256"
            },
            {
              "internalType": "uint256",
              "name": "rateChangeCooldown",
              "type": "uint256"
            },
            {
              "internalType": "uint256",
              "name": "appChangeCooldown",
              "type": "uint256"
            }
          ],
          "internalType": "struct IDGTokenVendor.FeeConfig",
          "name": "_feeConfig",
          "type": "tuple"
        }
      ],
      "stateMutability": "view",
      "type": "function"
    },
    {
      "inputs": [
        {
          "internalType": "address",
          "name": "user",
          "type": "address"
        }
      ],
      "name": "getFirstValidCollection",
      "outputs": [
        {
          "internalType": "address",
          "name": "",
          "type": "address"
        }
      ],
      "stateMutability": "view",
      "type": "function"
    },
    {
      "inputs": [
        {
          "internalType": "enum IDGTokenVendor.UserStage",
          "name": "_stage",
          "type": "uint8"
        }
      ],
      "name": "getStageConfig",
      "outputs": [
        {
          "components": [
            {
              "internalType": "uint256",
              "name": "burnAmount",
              "type": "uint256"
            },
            {
              "internalType": "uint256",
              "name": "upgradePointsThreshold",
              "type": "uint256"
            },
            {
              "internalType": "uint256",
              "name": "upgradeFuelThreshold",
              "type": "uint256"
            },
            {
              "internalType": "uint256",
              "name": "fuelRate",
              "type": "uint256"
            },
            {
              "internalType": "uint256",
              "name": "pointsAwarded",
              "type": "uint256"
            },
            {
              "internalType": "uint256",
              "name": "qualifyingBuyThreshold",
              "type": "uint256"
            },
            {
              "internalType": "uint256",
              "name": "maxSellBps",
              "type": "uint256"
            },
            {
              "internalType": "uint256",
              "name": "dailyLimitMultiplier",
              "type": "uint256"
            }
          ],
          "internalType": "struct IDGTokenVendor.StageConfig",
          "name": "_stageConfig",
          "type": "tuple"
        }
      ],
      "stateMutability": "view",
      "type": "function"
    },
    {
      "inputs": [],
      "name": "getStageConstants",
      "outputs": [
        {
          "components": [
            {
              "internalType": "uint256",
              "name": "maxSellCooldown",
              "type": "uint256"
            },
            {
              "internalType": "uint256",
              "name": "dailyWindow",
              "type": "uint256"
            },
            {
              "internalType": "uint256",
              "name": "minBuyAmount",
              "type": "uint256"
            },
            {
              "internalType": "uint256",
              "name": "minSellAmount",
              "type": "uint256"
            }
          ],
          "internalType": "struct IDGTokenVendor.StageConstants",
          "name": "_stageConstants",
          "type": "tuple"
        }
      ],
      "stateMutability": "view",
      "type": "function"
    },
    {
      "inputs": [],
      "name": "getSystemState",
      "outputs": [
        {
          "components": [
            {
              "internalType": "uint256",
              "name": "baseTokenFees",
              "type": "uint256"
            },
            {
              "internalType": "uint256",
              "name": "swapTokenFees",
              "type": "uint256"
            },
            {
              "internalType": "uint256",
              "name": "lastRateChangeTimestamp",
              "type": "uint256"
            },
            {
              "internalType": "uint256",
              "name": "lastFeeChangeTimestamp",
              "type": "uint256"
            },
            {
              "internalType": "address",
              "name": "devAddress",
              "type": "address"
            },
            {
              "internalType": "address",
              "name": "stewardCouncil",
              "type": "address"
            },
            {
              "internalType": "uint256",
              "name": "lastDevAddressChangeTimestamp",
              "type": "uint256"
            }
          ],
          "internalType": "struct IDGTokenVendor.SystemState",
          "name": "_systemState",
          "type": "tuple"
        }
      ],
      "stateMutability": "view",
      "type": "function"
    },
    {
      "inputs": [],
      "name": "getTokenConfig",
      "outputs": [
        {
          "components": [
            {
              "internalType": "contract IERC20",
              "name": "baseToken",
              "type": "address"
            },
            {
              "internalType": "contract IERC20",
              "name": "swapToken",
              "type": "address"
            },
            {
              "internalType": "uint256",
              "name": "exchangeRate",
              "type": "uint256"
            }
          ],
          "internalType": "struct IDGTokenVendor.TokenConfig",
          "name": "_tokenConfig",
          "type": "tuple"
        }
      ],
      "stateMutability": "view",
      "type": "function"
    },
    {
      "inputs": [
        {
          "internalType": "address",
          "name": "user",
          "type": "address"
        }
      ],
      "name": "getUserState",
      "outputs": [
        {
          "components": [
            {
              "internalType": "enum IDGTokenVendor.UserStage",
              "name": "stage",
              "type": "uint8"
            },
            {
              "internalType": "uint256",
              "name": "points",
              "type": "uint256"
            },
            {
              "internalType": "uint256",
              "name": "fuel",
              "type": "uint256"
            },
            {
              "internalType": "uint256",
              "name": "lastStage3MaxSale",
              "type": "uint256"
            },
            {
              "internalType": "uint256",
              "name": "dailySoldAmount",
              "type": "uint256"
            },
            {
              "internalType": "uint256",
              "name": "dailyWindowStart",
              "type": "uint256"
            }
          ],
          "internalType": "struct IDGTokenVendor.UserState",
          "name": "_userState",
          "type": "tuple"
        }
      ],
      "stateMutability": "view",
      "type": "function"
    },
    {
      "inputs": [],
      "name": "getWhitelistedCollections",
      "outputs": [
        {
          "internalType": "address[]",
          "name": "",
          "type": "address[]"
        }
      ],
      "stateMutability": "view",
      "type": "function"
    },
    {
      "inputs": [
        {
          "internalType": "address",
          "name": "user",
          "type": "address"
        }
      ],
      "name": "hasValidKey",
      "outputs": [
        {
          "internalType": "bool",
          "name": "",
          "type": "bool"
        }
      ],
      "stateMutability": "view",
      "type": "function"
    },
    {
      "inputs": [
        {
          "internalType": "address[]",
          "name": "collections",
          "type": "address[]"
        }
      ],
      "name": "initializeWhitelistedCollections",
      "outputs": [],
      "stateMutability": "nonpayable",
      "type": "function"
    },
    {
      "inputs": [],
      "name": "lightUp",
      "outputs": [],
      "stateMutability": "nonpayable",
      "type": "function"
    },
    {
      "inputs": [],
      "name": "owner",
      "outputs": [
        {
          "internalType": "address",
          "name": "",
          "type": "address"
        }
      ],
      "stateMutability": "view",
      "type": "function"
    },
    {
      "inputs": [],
      "name": "pause",
      "outputs": [],
      "stateMutability": "nonpayable",
      "type": "function"
    },
    {
      "inputs": [],
      "name": "paused",
      "outputs": [
        {
          "internalType": "bool",
          "name": "",
          "type": "bool"
        }
      ],
      "stateMutability": "view",
      "type": "function"
    },
    {
      "inputs": [],
      "name": "renounceOwnership",
      "outputs": [],
      "stateMutability": "nonpayable",
      "type": "function"
    },
    {
      "inputs": [
        {
          "internalType": "uint256",
          "name": "amount",
          "type": "uint256"
        }
      ],
      "name": "sellTokens",
      "outputs": [],
      "stateMutability": "nonpayable",
      "type": "function"
    },
    {
      "inputs": [
        {
          "internalType": "uint256",
          "name": "_rateChangeCooldown",
          "type": "uint256"
        },
        {
          "internalType": "uint256",
          "name": "_appChangeCooldown",
          "type": "uint256"
        }
      ],
      "name": "setCooldownConfig",
      "outputs": [],
      "stateMutability": "nonpayable",
      "type": "function"
    },
    {
      "inputs": [
        {
          "internalType": "address",
          "name": "newDevAddress",
          "type": "address"
        }
      ],
      "name": "setDevAddress",
      "outputs": [],
      "stateMutability": "nonpayable",
      "type": "function"
    },
    {
      "inputs": [
        {
          "internalType": "uint256",
          "name": "newRate",
          "type": "uint256"
        }
      ],
      "name": "setExchangeRate",
      "outputs": [],
      "stateMutability": "nonpayable",
      "type": "function"
    },
    {
      "inputs": [
        {
          "internalType": "uint256",
          "name": "newBuyFeeBPS",
          "type": "uint256"
        },
        {
          "internalType": "uint256",
          "name": "newSellFeeBPS",
          "type": "uint256"
        }
      ],
      "name": "setFeeRates",
      "outputs": [],
      "stateMutability": "nonpayable",
      "type": "function"
    },
    {
      "inputs": [
        {
          "internalType": "enum IDGTokenVendor.UserStage",
          "name": "_stage",
          "type": "uint8"
        },
        {
          "components": [
            {
              "internalType": "uint256",
              "name": "burnAmount",
              "type": "uint256"
            },
            {
              "internalType": "uint256",
              "name": "upgradePointsThreshold",
              "type": "uint256"
            },
            {
              "internalType": "uint256",
              "name": "upgradeFuelThreshold",
              "type": "uint256"
            },
            {
              "internalType": "uint256",
              "name": "fuelRate",
              "type": "uint256"
            },
            {
              "internalType": "uint256",
              "name": "pointsAwarded",
              "type": "uint256"
            },
            {
              "internalType": "uint256",
              "name": "qualifyingBuyThreshold",
              "type": "uint256"
            },
            {
              "internalType": "uint256",
              "name": "maxSellBps",
              "type": "uint256"
            },
            {
              "internalType": "uint256",
              "name": "dailyLimitMultiplier",
              "type": "uint256"
            }
          ],
          "internalType": "struct IDGTokenVendor.StageConfig",
          "name": "_config",
          "type": "tuple"
        }
      ],
      "name": "setStageConfig",
      "outputs": [],
      "stateMutability": "nonpayable",
      "type": "function"
    },
    {
      "inputs": [
        {
          "internalType": "address",
          "name": "_newCouncilAddress",
          "type": "address"
        }
      ],
      "name": "setStewardCouncilAddress",
      "outputs": [],
      "stateMutability": "nonpayable",
      "type": "function"
    },
    {
      "inputs": [
        {
          "internalType": "address",
          "name": "newOwner",
          "type": "address"
        }
      ],
      "name": "transferOwnership",
      "outputs": [],
      "stateMutability": "nonpayable",
      "type": "function"
    },
    {
      "inputs": [],
      "name": "unpause",
      "outputs": [],
      "stateMutability": "nonpayable",
      "type": "function"
    },
    {
      "inputs": [],
      "name": "upgradeStage",
      "outputs": [],
      "stateMutability": "nonpayable",
      "type": "function"
    },
    {
      "inputs": [],
      "name": "withdrawETH",
      "outputs": [],
      "stateMutability": "nonpayable",
      "type": "function"
    },
    {
      "inputs": [],
      "name": "withdrawFees",
      "outputs": [],
      "stateMutability": "nonpayable",
      "type": "function"
    },
    {
      "stateMutability": "payable",
      "type": "receive"
    }
  ],
  "transactionHash": "0xc54ceef2826e3f5bad616e213916781dc62f0bbb4220f373be0f7b0b4b898247",
  "args": [
    "0xaC27fa800955849d6D17cC8952Ba9dD6EAA66187",
    "0x4aA47eD29959c7053996d8f7918db01A62D02ee5",
    10,
    "0xE11Cd5244DE68D90755a1d142Ab446A4D17cDC10",
    "0x167e7497191346211dBC6e9f64c9A736eC84C689"
  ],
  "numDeployments": 2,
  "solcInputHash": "b2a3f391f7be7256493aa38cded65508",
  "bytecode": "0x60806040523480156200001157600080fd5b5060405162002f1838038062002f188339810160408190526200003491620004f5565b33806200005b57604051631e4fbdf760e01b81526000600482015260240160405180910390fd5b6200006681620000b2565b50600180556002805460ff191690556000839003620000985760405163a2ec3a5560e01b815260040160405180910390fd5b620000a7858585858562000102565b505050505062000572565b600080546001600160a01b038381166001600160a01b0319831681178455604051919092169283917f8be0079c531659141344cd1fd0a4f28419497f9722a3daafe3b4186f6b6457e09190a35050565b60408051606080820183526001600160a01b038881168084528882166020808601829052948601899052600d80546001600160a01b03199081169093179055600e805483169091179055600f889055845160e080820187526000808352828701819052428389018190528387018190528a86166080808601829052968b1660a080870182905260c096870184905260108590556011859055601284905560138490556014805489169093179092556015805490971617909555601655875180840189526103e8808252600a828a018190526064838c0181905260c8848b018190526276a700858b01819052629e3400958a0186905260079490945560088390556009829055909155600b91909155600c9190915588518087018a52623b538080825262015180828b01819052683635c9adc5dea00000838d0181905269010f0cf064dd59200000938b018490526003929092556004556005819055600691909155895161010081018b52678ac7230489e80000815298890183905298880182905260019688018790529487019590955291850195909552611388948401949094529282019290925290601990808152602001908152602001600020600082015181600001556020820151816001015560408201518160020155606082015181600301556080820151816004015560a0820151816005015560c0820151816006015560e0820151816007015590505060405180610100016040528068056bc75e2d63100000815260200160328152602001600a8152602001600281526020016002815260200169010f0cf064dd5920000081526020016117708152602001606481525060196000600160028111156200037e576200037e6200055c565b60028111156200039257620003926200055c565b8152602001908152602001600020600082015181600001556020820151816001015560408201518160020155606082015181600301556080820151816004015560a0820151816005015560c0820151816006015560e08201518160070155905050604051806101000160405280681b1ae4d6e2ef50000081526020016101f4815260200160648152602001600581526020016005815260200169043c33c19375648000008152602001611b5881526020016064815250601960006002808111156200046157620004616200055c565b60028111156200047557620004756200055c565b81526020808201929092526040908101600020835181559183015160018301558201516002820155606082015160038201556080820151600482015560a0820151600582015560c0820151600682015560e0909101516007909101555050505050565b80516001600160a01b0381168114620004f057600080fd5b919050565b600080600080600060a086880312156200050e57600080fd5b6200051986620004d8565b94506200052960208701620004d8565b9350604086015192506200054060608701620004d8565b91506200055060808701620004d8565b90509295509295909350565b634e487b7160e01b600052602160045260246000fd5b61299680620005826000396000f3fe6080604052600436106102345760003560e01c8063715018a61161012e578063d0d41fe1116100ab578063e6aa216c1161006f578063e6aa216c1461070c578063f2fde38b14610721578063fccc281314610741578063feaca58314610769578063ff8fefc51461078957600080fd5b8063d0d41fe114610674578063db068e0e14610694578063e086e5ec146106b4578063e1f1c4a7146106c9578063e2909150146106df57600080fd5b80638da5cb5b116100f25780638da5cb5b1461058f57806390eff96914610435578063a1441f4f146105c1578063abd6dfb014610634578063b1c5b8a71461065457600080fd5b8063715018a61461052e5780638438296d146104c35780638456cb59146105435780638b0279d2146105585780638ca8cc9b1461057a57600080fd5b80634205ecf4116101bc5780635fbbc0d2116101805780635fbbc0d2146104625780635fec87c5146104c3578063641208f1146104d85780636c11bcd3146104ee5780636f0dc1bd1461050e57600080fd5b80634205ecf4146103dd578063476343ee146103fd57806349fea517146104125780634faf0e71146104355780635c975abb1461044a57600080fd5b80632f036c90116102035780632f036c90146103365780633610724e1461035b57806339c078221461037b5780633f4ba83a1461039b578063416ae768146103b057600080fd5b80630602f2f914610240578063168c89cf146102575780631e70a17c1461026c57806328fa777f146102bd57600080fd5b3661023b57005b600080fd5b34801561024c57600080fd5b506102556107a9565b005b34801561026357600080fd5b50610255610991565b34801561027857600080fd5b50610281610b22565b6040516102b491908151815260208083015190820152604080830151908201526060918201519181019190915260800190565b60405180910390f35b3480156102c957600080fd5b506102d2610b7a565b6040516102b49190600060e08201905082518252602083015160208301526040830151604083015260608301516060830152608083015160018060a01b0380821660808501528060a08601511660a0850152505060c083015160c083015292915050565b34801561034257600080fd5b5061034b610c1d565b60405190151581526020016102b4565b34801561036757600080fd5b50610255610376366004612563565b610c37565b34801561038757600080fd5b5061025561039636600461257c565b610ec7565b3480156103a757600080fd5b50610255610f40565b3480156103bc57600080fd5b506103d06103cb36600461257c565b610f88565b6040516102b491906125dd565b3480156103e957600080fd5b506102556103f836600461263c565b61104a565b34801561040957600080fd5b5061025561130a565b34801561041e57600080fd5b50610427600a81565b6040519081526020016102b4565b34801561044157600080fd5b50610427606481565b34801561045657600080fd5b5060025460ff1661034b565b34801561046e57600080fd5b506104776113f6565b6040516102b49190600060c082019050825182526020830151602083015260408301516040830152606083015160608301526080830151608083015260a083015160a083015292915050565b3480156104cf57600080fd5b50610427600581565b3480156104e457600080fd5b50610427611b5881565b3480156104fa57600080fd5b50610255610509366004612563565b61146c565b34801561051a57600080fd5b5061025561052936600461267d565b611820565b34801561053a57600080fd5b506102556118cf565b34801561054f57600080fd5b506102556118e1565b34801561056457600080fd5b5061056d611929565b6040516102b4919061269f565b34801561058657600080fd5b5061034b61198b565b34801561059b57600080fd5b506000546001600160a01b03165b6040516001600160a01b0390911681526020016102b4565b3480156105cd57600080fd5b506040805160608082018352600080835260208084018290529284015282518082018452600d546001600160a01b03908116808352600e548216838601908152600f54938701938452865191825251909116938101939093525192820192909252016102b4565b34801561064057600080fd5b5061034b61064f36600461257c565b61199d565b34801561066057600080fd5b506105a961066f36600461257c565b611a71565b34801561068057600080fd5b5061025561068f36600461257c565b611b4f565b3480156106a057600080fd5b506102556106af366004612563565b611c1f565b3480156106c057600080fd5b50610255611cc5565b3480156106d557600080fd5b5061042761271081565b3480156106eb57600080fd5b506106ff6106fa3660046126ec565b611dca565b6040516102b49190612755565b34801561071857600080fd5b50600f54610427565b34801561072d57600080fd5b5061025561073c36600461257c565b611eaa565b34801561074d57600080fd5b506105a9732ef7dec913e4127fd0f94b32eead23ee6314359881565b34801561077557600080fd5b5061025561078436600461267d565b611eea565b34801561079557600080fd5b506102556107a4366004612764565b611fc4565b6107b23361199d565b6107cf5760405163e4c147b760e01b815260040160405180910390fd5b6107d7612162565b6107df612186565b3360009081526018602052604090206002815460ff166002811115610806576108066125a5565b03610824576040516323c3457d60e21b815260040160405180910390fd5b805460009060ff16600281111561083d5761083d6125a5565b6108489060016127ef565b6002811115610859576108596125a5565b905060196000826002811115610871576108716125a5565b6002811115610882576108826125a5565b815260200190815260200160002060010154826001015410156108b857604051635d25a49360e01b815260040160405180910390fd5b601960008260028111156108ce576108ce6125a5565b60028111156108df576108df6125a5565b8152602001908152602001600020600201548260020154101561091557604051630797028d60e01b815260040160405180910390fd5b81548190839060ff19166001836002811115610933576109336125a5565b02179055506000600183018190556002830155815460405133917fb70d74b9d8c0fda2b85abb8b3f56ec446bbb704a0f82cff6e20bb695877840789161097c9160ff1690612802565b60405180910390a2505061098f60018055565b565b61099a3361199d565b6109b75760405163e4c147b760e01b815260040160405180910390fd5b6109bf612162565b6109c7612186565b3360009081526018602052604081208054909190601990829060ff1660028111156109f4576109f46125a5565b6002811115610a0557610a056125a5565b8152602080820192909252604090810160002081516101008101835281548082526001830154948201949094526002820154928101929092526003810154606083015260048101546080830152600581015460a0830152600681015460c08301526007015460e0820152600d54909250610aa2916001600160a01b03909116903390732ef7dec913e4127fd0f94b32eead23ee63143598906121b0565b6000610ac282606001518460020154610abb91906127ef565b606461221d565b90508260020154811115610ad857600283018190555b8151604080519182526020820183905233917fdbfd1f1a3141f27f6376b66eab3b06a7aed44b4adaa74c1cde2953f60b4a901e91015b60405180910390a250505061098f60018055565b610b4d6040518060800160405280600081526020016000815260200160008152602001600081525090565b50604080516080810182526003548152600454602082015260055491810191909152600654606082015290565b610bcc6040518060e001604052806000815260200160008152602001600081526020016000815260200160006001600160a01b0316815260200160006001600160a01b03168152602001600081525090565b506040805160e081018252601054815260115460208201526012549181019190915260135460608201526014546001600160a01b0390811660808301526015541660a082015260165460c082015290565b600b54601254600091610c2f916127ef565b421015905090565b610c3f612186565b610c483361199d565b610c655760405163e4c147b760e01b815260040160405180910390fd5b610c6d612162565b600554811015610c9057604051631b88e6f960e31b815260040160405180910390fd5b600d546040516370a0823160e01b815233600482015282916001600160a01b0316906370a0823190602401602060405180830381865afa158015610cd8573d6000803e3d6000fd5b505050506040513d601f19601f82011682018060405250810190610cfc9190612810565b1015610d1b57604051631e9acf1760e31b815260040160405180910390fd5b60095460009061271090610d2f9084612829565b610d399190612840565b600f54909150600090610d4c8385612862565b610d569190612829565b90508160106000016000828254610d6d91906127ef565b90915550503360009081526018602052604081208054909190601990829060ff166002811115610d9f57610d9f6125a5565b6002811115610db057610db06125a5565b8152602001908152602001600020604051806101000160405290816000820154815260200160018201548152602001600282015481526020016003820154815260200160048201548152602001600582015481526020016006820154815260200160078201548152505090508060a001518510610e45578060800151826001016000828254610e3f91906127ef565b90915550505b600d54610e5d906001600160a01b03163330886121b0565b600e54610e74906001600160a01b03163385612237565b604080518681526020810185905290810185905233907f0d1a0d5e3d583a0e92588799dd06e50fd78c07daf05f0cc06d7b848b1ca445f19060600160405180910390a250505050610ec460018055565b50565b610ecf612268565b6001600160a01b038116610ef657604051636a37fde960e01b815260040160405180910390fd5b601580546001600160a01b0319166001600160a01b0383169081179091556040517f73c00ab29958d28e658220b90dfab0e80b8279f6835cbfb4ad2fc637e02781c790600090a250565b6000546001600160a01b0316331480610f6357506015546001600160a01b031633145b610f8057604051635c427cd960e01b815260040160405180910390fd5b61098f612295565b610fc26040805160c08101909152806000815260200160008152602001600081526020016000815260200160008152602001600081525090565b6001600160a01b03821660009081526018602052604090819020815160c081019092528054829060ff166002811115610ffd57610ffd6125a5565b600281111561100e5761100e6125a5565b81526001820154602082015260028201546040820152600382015460608201526004820154608082015260059091015460a09091015292915050565b611052612268565b6064600060c083013582118061106d5750611b588360c00135115b1561108b5760405163530da5b960e01b815260040160405180910390fd5b80836060013514806110a1575060058360600135115b156110bf57604051630816fbc760e11b815260040160405180910390fd5b80836080013514806110d5575060058360800135115b156110f3576040516308226f8b60e01b815260040160405180910390fd5b808360e001351480611109575060648360e00135115b156111275760405163de35777160e01b815260040160405180910390fd5b8235819003611149576040516302075cc160e41b815260040160405180910390fd5b8083602001350361116d57604051639541404d60e01b815260040160405180910390fd5b808360400135036111915760405163ecb4113760e01b815260040160405180910390fd5b808360a00135036111b55760405163062e16f560e11b815260040160405180910390fd5b6000601960008660028111156111cd576111cd6125a5565b60028111156111de576111de6125a5565b815260200190815260200160002090506000816040518061010001604052908160008201548152602001600182015481526020016002820154815260200160038201548152602001600482015481526020016005820154815260200160068201548152602001600782015481525050905084600001358260000181905550846020013582600101819055508460400135826002018190555084606001358260030181905550846080013582600401819055508460a0013582600501819055508460c0013582600601819055508460e0013582600701819055508560028111156112c9576112c96125a5565b7fc58b1e897dd4f5f2b7b3549304a2614500629e7b5954f911df41b4f9b27b46bb82846040516112fa929190612875565b60405180910390a2505050505050565b611312612186565b6000546001600160a01b031633148061133557506014546001600160a01b031633145b61135257604051635c427cd960e01b815260040160405180910390fd5b61135a612162565b60145460108054601180546000938490559290556001600160a01b039092169190811561139857600d54611398906001600160a01b03168484612237565b80156113b557600e546113b5906001600160a01b03168483612237565b60408051838152602081018390526001600160a01b038516917fdeb5099d7943aa2b4c1142e5d53d2f7636aa8f7bd130ec79816f151572bcdf459101610b0e565b61142f6040518060c001604052806000815260200160008152602001600081526020016000815260200160008152602001600081525090565b506040805160c0810182526007548152600854602082015260095491810191909152600a546060820152600b546080820152600c5460a082015290565b611474612186565b61147d3361199d565b61149a5760405163e4c147b760e01b815260040160405180910390fd5b6114a2612162565b6006548110156114c557604051631b88e6f960e31b815260040160405180910390fd5b600a54600090612710906114d99084612829565b6114e39190612840565b905060006114f18284612862565b600f549091506000906115049083612840565b90508060000361152757604051631b88e6f960e31b815260040160405180910390fd5b3360009081526018602052604081208054909190601990829060ff166002811115611554576115546125a5565b6002811115611565576115656125a5565b81526020808201929092526040908101600090812082516101008101845281548152600182015494810194909452600281015484840152600381015460608501526004808201546080860152600582015460a0860152600682015460c086015260079091015460e0850152600d5492516370a0823160e01b81523091810191909152929350916001600160a01b03909116906370a0823190602401602060405180830381865afa15801561161d573d6000803e3d6000fd5b505050506040513d601f19601f820116820180604052508101906116419190612810565b905060006127108360c00151836116589190612829565b6116629190612840565b90508085111561168557604051632509499f60e11b815260040160405180910390fd5b6002845460ff16600281111561169d5761169d6125a5565b1480156116a957508085145b156116e65760038054908501546116c091906127ef565b42116116df576040516308516f7760e11b815260040160405180910390fd5b4260038501555b60045460058501546116f891906127ef565b42111561170d57600060048501554260058501555b600084600201548460e0015161172391906127ef565b8460a001516117329190612829565b90508089866004015461174591906127ef565b111561176457604051636a6c16ab60e01b815260040160405180910390fd5b8885600401600082825461177891906127ef565b9091555050600060028601819055601180548a92906117989084906127ef565b9091555050600e546117b5906001600160a01b031633308c6121b0565b600d546117cc906001600160a01b03163388612237565b604080518a81526020810188905290810189905233907f6db63bebf1e6540277744df32846ebdb98385b1a73f2d5de49b28348add63f509060600160405180910390a25050505050505050610ec460018055565b611828612268565b6212750062ed4e008184108061183d57508084115b1561185b57604051637475d84d60e11b815260040160405180910390fd5b8183108061186857508083115b1561188657604051637475d84d60e11b815260040160405180910390fd5b600b849055600c83905560408051858152602081018590527f1eab951da250f7e001396235b296e29bc73945b6a52fd471dd8f3de3398634be910160405180910390a150505050565b6118d7612268565b61098f60006122e7565b6000546001600160a01b031633148061190457506015546001600160a01b031633145b61192157604051635c427cd960e01b815260040160405180910390fd5b61098f612337565b6060601780548060200260200160405190810160405280929190818152602001828054801561198157602002820191906000526020600020905b81546001600160a01b03168152600190910190602001808311611963575b5050505050905090565b600c54601354600091610c2f916127ef565b60175460009081036119b157506000919050565b60005b601754811015611a6857601781815481106119d1576119d16128e0565b600091825260209091200154604051631b63a96d60e21b81526001600160a01b03858116600483015290911690636d8ea5b490602401602060405180830381865afa158015611a24573d6000803e3d6000fd5b505050506040513d601f19601f82011682018060405250810190611a4891906128f6565b15611a565750600192915050565b80611a6081612918565b9150506119b4565b50600092915050565b6000805b601754811015611a685760178181548110611a9257611a926128e0565b600091825260209091200154604051631b63a96d60e21b81526001600160a01b03858116600483015290911690636d8ea5b490602401602060405180830381865afa158015611ae5573d6000803e3d6000fd5b505050506040513d601f19601f82011682018060405250810190611b0991906128f6565b15611b3d5760178181548110611b2157611b216128e0565b6000918252602090912001546001600160a01b03169392505050565b80611b4781612918565b915050611a75565b6014546001600160a01b03163314611b7a57604051635c427cd960e01b815260040160405180910390fd5b6001600160a01b038116611ba157604051636a37fde960e01b815260040160405180910390fd5b600c54601654611bb191906127ef565b421015611bd1576040516326f4231b60e11b815260040160405180910390fd5b601480546001600160a01b0319166001600160a01b038316908117909155426016556040517f34830ecd12aee38e030de8db2aab7662959ba614a8af53e095041d13deced11d90600090a250565b611c27612268565b600b546012546103e891611c3a916127ef565b421015611c5a5760405163418ffd5d60e01b815260040160405180910390fd5b811580611c6657508082115b15611c845760405163a2ec3a5560e01b815260040160405180910390fd5b600f829055426012556040518281527f388f446e9526fe5c9af20a5919b342370c8a7c0cb05245afe1e545658fa3cdba906020015b60405180910390a15050565b611ccd612186565b6000546001600160a01b0316331480611cf057506014546001600160a01b031633145b611d0d57604051635c427cd960e01b815260040160405180910390fd5b611d15612162565b6014546040516001600160a01b03909116904790600090839083908381818185875af1925050503d8060008114611d68576040519150601f19603f3d011682016040523d82523d6000602084013e611d6d565b606091505b5050905080611d8f5760405163b12d13eb60e01b815260040160405180910390fd5b826001600160a01b03167f94b2de810873337ed265c5f8cf98c9cffefa06b8607f9a2f1fbaebdfbcfbef1c83604051610b0e91815260200190565b611e1260405180610100016040528060008152602001600081526020016000815260200160008152602001600081526020016000815260200160008152602001600081525090565b60196000836002811115611e2857611e286125a5565b6002811115611e3957611e396125a5565b815260200190815260200160002060405180610100016040529081600082015481526020016001820154815260200160028201548152602001600382015481526020016004820154815260200160058201548152602001600682015481526020016007820154815250509050919050565b611eb2612268565b6001600160a01b038116611ee157604051631e4fbdf760e01b8152600060048201526024015b60405180910390fd5b610ec4816122e7565b611ef2612268565b600c54601354611f0291906127ef565b421015611f22576040516376fd201760e01b815260040160405180910390fd5b600754821180611f33575060075481115b15611f515760405163530da5b960e01b815260040160405180910390fd5b600854821080611f62575060085481105b15611f805760405163530da5b960e01b815260040160405180910390fd5b6009829055600a8190554260135560408051838152602081018390527f4f672c50736ba0fe8a4825ecfde8bcd931727422a77ac89af44fccce2746e0b39101611cb9565b6000546001600160a01b0316331480611fe757506014546001600160a01b031633145b61200457604051635c427cd960e01b815260040160405180910390fd5b601754600a906120159083906127ef565b111561203457604051630ef0d4a960e11b815260040160405180910390fd5b6017541561205557604051630397a11d60e41b815260040160405180910390fd5b60005b8181101561215d5761208f838383818110612075576120756128e0565b905060200201602081019061208a919061257c565b612374565b61214b5760178383838181106120a7576120a76128e0565b90506020020160208101906120bc919061257c565b81546001810183556000928352602090922090910180546001600160a01b0319166001600160a01b03909216919091179055828282818110612100576121006128e0565b9050602002016020810190612115919061257c565b6001600160a01b03167f6ceaa522e49a50257b61147d8087ceb07e0921738699c728fa2d83b5eff6fd9260405160405180910390a25b8061215581612918565b915050612058565b505050565b60025460ff161561098f5760405163d93c066560e01b815260040160405180910390fd5b6002600154036121a957604051633ee5aeb560e01b815260040160405180910390fd5b6002600155565b6040516001600160a01b0384811660248301528381166044830152606482018390526122179186918216906323b872dd906084015b604051602081830303815290604052915060e01b6020820180516001600160e01b0383818316178352505050506123d4565b50505050565b600081831061222c578161222e565b825b90505b92915050565b6040516001600160a01b0383811660248301526044820183905261215d91859182169063a9059cbb906064016121e5565b6000546001600160a01b0316331461098f5760405163118cdaa760e01b8152336004820152602401611ed8565b61229d612437565b6002805460ff191690557f5db9ee0a495bf2e6ff9c91a7834c1ba4fdd244a5e8aa4e537bd38aeae4b073aa335b6040516001600160a01b03909116815260200160405180910390a1565b600080546001600160a01b038381166001600160a01b0319831681178455604051919092169283917f8be0079c531659141344cd1fd0a4f28419497f9722a3daafe3b4186f6b6457e09190a35050565b61233f612162565b6002805460ff191660011790557f62e78cea01bee320cd4e420270b5ea74000d11b0c9f74754ebdbfc544b05a2586122ca3390565b6000805b601754811015611a6857826001600160a01b03166017828154811061239f5761239f6128e0565b6000918252602090912001546001600160a01b0316036123c25750600192915050565b806123cc81612918565b915050612378565b60006123e96001600160a01b0384168361245a565b9050805160001415801561240e57508080602001905181019061240c91906128f6565b155b1561215d57604051635274afe760e01b81526001600160a01b0384166004820152602401611ed8565b60025460ff1661098f57604051638dfc202b60e01b815260040160405180910390fd5b606061222e8383600084600080856001600160a01b031684866040516124809190612931565b60006040518083038185875af1925050503d80600081146124bd576040519150601f19603f3d011682016040523d82523d6000602084013e6124c2565b606091505b50915091506124d28683836124de565b925050505b9392505050565b6060826124f3576124ee8261253a565b6124d7565b815115801561250a57506001600160a01b0384163b155b1561253357604051639996b31560e01b81526001600160a01b0385166004820152602401611ed8565b50806124d7565b80511561254a5780518082602001fd5b604051630a12f52160e11b815260040160405180910390fd5b60006020828403121561257557600080fd5b5035919050565b60006020828403121561258e57600080fd5b81356001600160a01b03811681146124d757600080fd5b634e487b7160e01b600052602160045260246000fd5b600381106125d957634e487b7160e01b600052602160045260246000fd5b9052565b600060c0820190506125f08284516125bb565b6020830151602083015260408301516040830152606083015160608301526080830151608083015260a083015160a083015292915050565b80356003811061263757600080fd5b919050565b60008082840361012081121561265157600080fd5b61265a84612628565b9250610100601f198201121561266f57600080fd5b506020830190509250929050565b6000806040838503121561269057600080fd5b50508035926020909101359150565b6020808252825182820181905260009190848201906040850190845b818110156126e05783516001600160a01b0316835292840192918401916001016126bb565b50909695505050505050565b6000602082840312156126fe57600080fd5b61222e82612628565b805182526020810151602083015260408101516040830152606081015160608301526080810151608083015260a081015160a083015260c081015160c083015260e081015160e08301525050565b61010081016122318284612707565b6000806020838503121561277757600080fd5b823567ffffffffffffffff8082111561278f57600080fd5b818501915085601f8301126127a357600080fd5b8135818111156127b257600080fd5b8660208260051b85010111156127c757600080fd5b60209290920196919550909350505050565b634e487b7160e01b600052601160045260246000fd5b80820180821115612231576122316127d9565b6020810161223182846125bb565b60006020828403121561282257600080fd5b5051919050565b8082028115828204841417612231576122316127d9565b60008261285d57634e487b7160e01b600052601260045260246000fd5b500490565b81810381811115612231576122316127d9565b61020081016128848285612707565b8254610100830152600183015461012083015260028301546101408301526003830154610160830152600483015461018083015260058301546101a083015260068301546101c083015260078301546101e08301529392505050565b634e487b7160e01b600052603260045260246000fd5b60006020828403121561290857600080fd5b815180151581146124d757600080fd5b60006001820161292a5761292a6127d9565b5060010190565b6000825160005b818110156129525760208186018101518583015201612938565b50600092019182525091905056fea2646970667358221220783f87d64317636d0e838686179e8d57e87c0b7318951f2311425b4fe899619a64736f6c63430008140033",
  "devdoc": {
    "errors": {
      "AddressEmptyCode(address)": [
        {
          "details": "There's no code at `target` (it is not a contract)."
        }
      ],
      "AddressInsufficientBalance(address)": [
        {
          "details": "The ETH balance of the account is not enough to perform the operation."
        }
      ],
      "EnforcedPause()": [
        {
          "details": "The operation failed because the contract is paused."
        }
      ],
      "ExpectedPause()": [
        {
          "details": "The operation failed because the contract is not paused."
        }
      ],
      "FailedInnerCall()": [
        {
          "details": "A call to an address target failed. The target may have reverted."
        }
      ],
      "OwnableInvalidOwner(address)": [
        {
          "details": "The owner is not a valid owner account. (eg. `address(0)`)"
        }
      ],
      "OwnableUnauthorizedAccount(address)": [
        {
          "details": "The caller account is not authorized to perform an operation."
        }
      ],
      "ReentrancyGuardReentrantCall()": [
        {
          "details": "Unauthorized reentrant call."
        }
      ],
      "SafeERC20FailedOperation(address)": [
        {
          "details": "An operation with an ERC20 token failed."
        }
      ]
    },
    "events": {
      "DevAddressUpdated(address)": {
        "params": {
          "newDevAddress": "The new developer address"
        }
      },
      "ETHWithdrawn(address,uint256)": {
        "params": {
          "amount": "Amount of ETH withdrawn",
          "to": "Address receiving the ETH"
        }
      },
      "ExchangeRateUpdated(uint256)": {
        "params": {
          "newRate": "New exchange rate"
        }
      },
      "FeeConfigUpdated(uint256,uint256)": {
        "params": {
          "appChangeCooldown": "New app change cooldown",
          "rateChangeCooldown": "New rate change cooldown"
        }
      },
      "FeeRatesUpdated(uint256,uint256)": {
        "params": {
          "newBuyFeeBPS": "New buy fee rate in basis points",
          "newSellFeeBPS": "New sell fee rate in basis points"
        }
      },
      "FeesWithdrawn(address,uint256,uint256)": {
        "params": {
          "baseTokenFees": "Amount of base token fees withdrawn",
          "swapTokenFees": "Amount of swap token fees withdrawn",
          "to": "Address receiving the fees"
        }
      },
      "Lit(address,uint256,uint256)": {
        "params": {
          "burnAmount": "Amount of tokens burned",
          "newFuel": "New fuel level",
          "user": "User address"
        }
      },
      "Paused(address)": {
        "details": "Emitted when the pause is triggered by `account`."
      },
      "StageConfigUpdated(uint8,(uint256,uint256,uint256,uint256,uint256,uint256,uint256,uint256),(uint256,uint256,uint256,uint256,uint256,uint256,uint256,uint256))": {
        "params": {
          "newConfig": "New configuration",
          "oldConfig": "Previous configuration",
          "stage": "The stage being updated"
        }
      },
      "StageConstantsUpdated(string,uint256)": {
        "params": {
          "parameter": "The name of the updated parameter",
          "value": "The new value"
        }
      },
      "StageUpgraded(address,uint8)": {
        "params": {
          "newStage": "New stage of the user",
          "user": "User address"
        }
      },
      "StewardCouncilAddressUpdated(address)": {
        "params": {
          "newStewardCouncilAddress": "The new steward council address"
        }
      },
      "TokensPurchased(address,uint256,uint256,uint256)": {
        "params": {
          "baseTokenAmount": "Amount of base tokens used",
          "buyer": "Address of the buyer",
          "fee": "Fee taken in base tokens",
          "swapTokenAmount": "Amount of swap tokens received"
        }
      },
      "TokensSold(address,uint256,uint256,uint256)": {
        "params": {
          "baseTokenAmount": "Amount of base tokens received",
          "fee": "Fee taken in swap tokens",
          "seller": "Address of the seller",
          "swapTokenAmount": "Amount of swap tokens sold"
        }
      },
      "Unpaused(address)": {
        "details": "Emitted when the pause is lifted by `account`."
      },
      "WhitelistedCollectionAdded(address)": {
        "params": {
          "collectionAddress": "Address of the added collection"
        }
      },
      "WhitelistedCollectionRemoved(address)": {
        "params": {
          "collectionAddress": "Address of the removed collection"
        }
      }
    },
    "kind": "dev",
    "methods": {
      "buyTokens(uint256)": {
        "params": {
          "amount": "Amount of base token to use for purchase"
        }
      },
      "canChangeExchangeRate()": {
        "returns": {
          "_0": "bool Whether exchange rate can be changed"
        }
      },
      "canChangeFeeRates()": {
        "returns": {
          "_0": "bool Whether fee rates can be changed"
        }
      },
      "getExchangeRate()": {
        "returns": {
          "_0": "_exchangeRate The exchange rate"
        }
      },
      "getFeeConfig()": {
        "returns": {
          "_feeConfig": "The fee configuration"
        }
      },
      "getFirstValidCollection(address)": {
        "params": {
          "user": "Address to check"
        },
        "returns": {
          "_0": "address First valid collection address"
        }
      },
      "getStageConfig(uint8)": {
        "params": {
          "_stage": "The stage to get configuration for"
        },
        "returns": {
          "_stageConfig": "The stage configuration"
        }
      },
      "getStageConstants()": {
        "returns": {
          "_stageConstants": "The stage constants"
        }
      },
      "getSystemState()": {
        "returns": {
          "_systemState": "The system state"
        }
      },
      "getTokenConfig()": {
        "returns": {
          "_tokenConfig": "The token configuration"
        }
      },
      "getUserState(address)": {
        "params": {
          "user": "The user address"
        },
        "returns": {
          "_userState": "The user state"
        }
      },
      "getWhitelistedCollections()": {
        "returns": {
          "_0": "address[] Array of whitelisted collection addresses"
        }
      },
      "hasValidKey(address)": {
        "params": {
          "user": "Address to check"
        },
        "returns": {
          "_0": "bool Whether user has a valid key"
        }
      },
      "initializeWhitelistedCollections(address[])": {
        "params": {
          "collections": "Array of collection addresses to whitelist"
        }
      },
      "owner()": {
        "details": "Returns the address of the current owner."
      },
      "paused()": {
        "details": "Returns true if the contract is paused, and false otherwise."
      },
      "renounceOwnership()": {
        "details": "Leaves the contract without owner. It will not be possible to call `onlyOwner` functions. Can only be called by the current owner. NOTE: Renouncing ownership will leave the contract without an owner, thereby disabling any functionality that is only available to the owner."
      },
      "sellTokens(uint256)": {
        "params": {
          "amount": "Amount of swap token to sell"
        }
      },
      "setCooldownConfig(uint256,uint256)": {
        "params": {
          "_appChangeCooldown": "Cooldown for changing app settings",
          "_rateChangeCooldown": "Cooldown for changing exchange rate"
        }
      },
      "setDevAddress(address)": {
        "params": {
          "newDevAddress": "New developer address"
        }
      },
      "setExchangeRate(uint256)": {
        "params": {
          "newRate": "New exchange rate"
        }
      },
      "setFeeRates(uint256,uint256)": {
        "params": {
          "newBuyFeeBPS": "New buy fee in basis points",
          "newSellFeeBPS": "New sell fee in basis points"
        }
      },
      "setStageConfig(uint8,(uint256,uint256,uint256,uint256,uint256,uint256,uint256,uint256))": {
        "params": {
          "_config": "New configuration for the stage",
          "_stage": "The stage to update"
        }
      },
      "transferOwnership(address)": {
        "details": "Transfers ownership of the contract to a new account (`newOwner`). Can only be called by the current owner."
      },
      "withdrawETH()": {
        "details": "Withdraw ETH from the contract (only admin)"
      }
    },
    "version": 1
  },
  "userdoc": {
    "events": {
      "DevAddressUpdated(address)": {
        "notice": "Emitted when the developer address is updated"
      },
      "ETHWithdrawn(address,uint256)": {
        "notice": "Emitted when ETH is withdrawn"
      },
      "ExchangeRateUpdated(uint256)": {
        "notice": "Emitted when exchange rate is updated"
      },
      "FeeConfigUpdated(uint256,uint256)": {
        "notice": "Emitted when fee configuration cooldowns are updated"
      },
      "FeeRatesUpdated(uint256,uint256)": {
        "notice": "Emitted when fee rates are updated"
      },
      "FeesWithdrawn(address,uint256,uint256)": {
        "notice": "Emitted when fees are withdrawn"
      },
      "Lit(address,uint256,uint256)": {
        "notice": "Emitted when a user uses the light up feature"
      },
      "StageConfigUpdated(uint8,(uint256,uint256,uint256,uint256,uint256,uint256,uint256,uint256),(uint256,uint256,uint256,uint256,uint256,uint256,uint256,uint256))": {
        "notice": "Emitted when stage configuration is updated"
      },
      "StageConstantsUpdated(string,uint256)": {
        "notice": "Emitted when stage constants are updated"
      },
      "StageUpgraded(address,uint8)": {
        "notice": "Emitted when a user upgrades to a new stage"
      },
      "StewardCouncilAddressUpdated(address)": {
        "notice": "Emitted when the steward council address is updated"
      },
      "TokensPurchased(address,uint256,uint256,uint256)": {
        "notice": "Emitted when tokens are purchased"
      },
      "TokensSold(address,uint256,uint256,uint256)": {
        "notice": "Emitted when tokens are sold"
      },
      "WhitelistedCollectionAdded(address)": {
        "notice": "Emitted when a collection is added to whitelist"
      },
      "WhitelistedCollectionRemoved(address)": {
        "notice": "Emitted when a collection is removed from whitelist"
      }
    },
    "kind": "user",
    "methods": {
      "buyTokens(uint256)": {
        "notice": "Buy tokens using base token"
      },
      "canChangeExchangeRate()": {
        "notice": "Check if exchange rate can be changed"
      },
      "canChangeFeeRates()": {
        "notice": "Check if fee rates can be changed"
      },
      "getExchangeRate()": {
        "notice": "Get exchange rate"
      },
      "getFeeConfig()": {
        "notice": "Get fee configuration"
      },
      "getFirstValidCollection(address)": {
        "notice": "Get the whitelisted collection for the first valid key a user has"
      },
      "getStageConfig(uint8)": {
        "notice": "Get stage configuration"
      },
      "getStageConstants()": {
        "notice": "Get stage constants"
      },
      "getSystemState()": {
        "notice": "Get system state"
      },
      "getTokenConfig()": {
        "notice": "Get token configuration"
      },
      "getUserState(address)": {
        "notice": "Get user state"
      },
      "getWhitelistedCollections()": {
        "notice": "Get all whitelisted collections"
      },
      "hasValidKey(address)": {
        "notice": "Check if user has a valid NFT key"
      },
      "initializeWhitelistedCollections(address[])": {
        "notice": "Initialize the whitelisted collections "
      },
      "lightUp()": {
        "notice": "Increase user's fuel by burning tokens"
      },
      "sellTokens(uint256)": {
        "notice": "Sell tokens to receive base token"
      },
      "setCooldownConfig(uint256,uint256)": {
        "notice": "Updates the fee configuration"
      },
      "setDevAddress(address)": {
        "notice": "Set new developer address"
      },
      "setExchangeRate(uint256)": {
        "notice": "Set new exchange rate"
      },
      "setFeeRates(uint256,uint256)": {
        "notice": "Set new fee rates"
      },
      "setStageConfig(uint8,(uint256,uint256,uint256,uint256,uint256,uint256,uint256,uint256))": {
        "notice": "Update stage configuration"
      },
      "upgradeStage()": {
        "notice": "Upgrade user to next stage when requirements are met"
      },
      "withdrawFees()": {
        "notice": "Withdraw accumulated fees"
      }
    },
    "version": 1
  },
  "storageLayout": {
    "storage": [
      {
        "astId": 8,
        "contract": "contracts/DGTokenVendor.sol:DGTokenVendor",
        "label": "_owner",
        "offset": 0,
        "slot": "0",
        "type": "t_address"
      },
      {
        "astId": 1083,
        "contract": "contracts/DGTokenVendor.sol:DGTokenVendor",
        "label": "_status",
        "offset": 0,
        "slot": "1",
        "type": "t_uint256"
      },
      {
        "astId": 964,
        "contract": "contracts/DGTokenVendor.sol:DGTokenVendor",
        "label": "_paused",
        "offset": 0,
        "slot": "2",
        "type": "t_bool"
      },
      {
        "astId": 2331,
        "contract": "contracts/DGTokenVendor.sol:DGTokenVendor",
        "label": "stageConstants",
        "offset": 0,
        "slot": "3",
        "type": "t_struct(StageConstants)4005_storage"
      },
      {
        "astId": 2334,
        "contract": "contracts/DGTokenVendor.sol:DGTokenVendor",
        "label": "feeConfig",
        "offset": 0,
        "slot": "7",
        "type": "t_struct(FeeConfig)4034_storage"
      },
      {
        "astId": 2337,
        "contract": "contracts/DGTokenVendor.sol:DGTokenVendor",
        "label": "tokenConfig",
        "offset": 0,
        "slot": "13",
        "type": "t_struct(TokenConfig)4044_storage"
      },
      {
        "astId": 2340,
        "contract": "contracts/DGTokenVendor.sol:DGTokenVendor",
        "label": "systemState",
        "offset": 0,
        "slot": "16",
        "type": "t_struct(SystemState)4060_storage"
      },
      {
        "astId": 2343,
        "contract": "contracts/DGTokenVendor.sol:DGTokenVendor",
        "label": "whitelistedCollections",
        "offset": 0,
        "slot": "23",
        "type": "t_array(t_address)dyn_storage"
      },
      {
        "astId": 2348,
        "contract": "contracts/DGTokenVendor.sol:DGTokenVendor",
        "label": "userStates",
        "offset": 0,
        "slot": "24",
        "type": "t_mapping(t_address,t_struct(UserState)4020_storage)"
      },
      {
        "astId": 2354,
        "contract": "contracts/DGTokenVendor.sol:DGTokenVendor",
        "label": "stageConfig",
        "offset": 0,
        "slot": "25",
        "type": "t_mapping(t_enum(UserStage)3977,t_struct(StageConfig)3995_storage)"
      }
    ],
    "types": {
      "t_address": {
        "encoding": "inplace",
        "label": "address",
        "numberOfBytes": "20"
      },
      "t_array(t_address)dyn_storage": {
        "base": "t_address",
        "encoding": "dynamic_array",
        "label": "address[]",
        "numberOfBytes": "32"
      },
      "t_bool": {
        "encoding": "inplace",
        "label": "bool",
        "numberOfBytes": "1"
      },
      "t_contract(IERC20)229": {
        "encoding": "inplace",
        "label": "contract IERC20",
        "numberOfBytes": "20"
      },
      "t_enum(UserStage)3977": {
        "encoding": "inplace",
        "label": "enum IDGTokenVendor.UserStage",
        "numberOfBytes": "1"
      },
      "t_mapping(t_address,t_struct(UserState)4020_storage)": {
        "encoding": "mapping",
        "key": "t_address",
        "label": "mapping(address => struct IDGTokenVendor.UserState)",
        "numberOfBytes": "32",
        "value": "t_struct(UserState)4020_storage"
      },
      "t_mapping(t_enum(UserStage)3977,t_struct(StageConfig)3995_storage)": {
        "encoding": "mapping",
        "key": "t_enum(UserStage)3977",
        "label": "mapping(enum IDGTokenVendor.UserStage => struct IDGTokenVendor.StageConfig)",
        "numberOfBytes": "32",
        "value": "t_struct(StageConfig)3995_storage"
      },
      "t_struct(FeeConfig)4034_storage": {
        "encoding": "inplace",
        "label": "struct IDGTokenVendor.FeeConfig",
        "members": [
          {
            "astId": 4023,
            "contract": "contracts/DGTokenVendor.sol:DGTokenVendor",
            "label": "maxFeeBps",
            "offset": 0,
            "slot": "0",
            "type": "t_uint256"
          },
          {
            "astId": 4025,
            "contract": "contracts/DGTokenVendor.sol:DGTokenVendor",
            "label": "minFeeBps",
            "offset": 0,
            "slot": "1",
            "type": "t_uint256"
          },
          {
            "astId": 4027,
            "contract": "contracts/DGTokenVendor.sol:DGTokenVendor",
            "label": "buyFeeBps",
            "offset": 0,
            "slot": "2",
            "type": "t_uint256"
          },
          {
            "astId": 4029,
            "contract": "contracts/DGTokenVendor.sol:DGTokenVendor",
            "label": "sellFeeBps",
            "offset": 0,
            "slot": "3",
            "type": "t_uint256"
          },
          {
            "astId": 4031,
            "contract": "contracts/DGTokenVendor.sol:DGTokenVendor",
            "label": "rateChangeCooldown",
            "offset": 0,
            "slot": "4",
            "type": "t_uint256"
          },
          {
            "astId": 4033,
            "contract": "contracts/DGTokenVendor.sol:DGTokenVendor",
            "label": "appChangeCooldown",
            "offset": 0,
            "slot": "5",
            "type": "t_uint256"
          }
        ],
        "numberOfBytes": "192"
      },
      "t_struct(StageConfig)3995_storage": {
        "encoding": "inplace",
        "label": "struct IDGTokenVendor.StageConfig",
        "members": [
          {
            "astId": 3980,
            "contract": "contracts/DGTokenVendor.sol:DGTokenVendor",
            "label": "burnAmount",
            "offset": 0,
            "slot": "0",
            "type": "t_uint256"
          },
          {
            "astId": 3982,
            "contract": "contracts/DGTokenVendor.sol:DGTokenVendor",
            "label": "upgradePointsThreshold",
            "offset": 0,
            "slot": "1",
            "type": "t_uint256"
          },
          {
            "astId": 3984,
            "contract": "contracts/DGTokenVendor.sol:DGTokenVendor",
            "label": "upgradeFuelThreshold",
            "offset": 0,
            "slot": "2",
            "type": "t_uint256"
          },
          {
            "astId": 3986,
            "contract": "contracts/DGTokenVendor.sol:DGTokenVendor",
            "label": "fuelRate",
            "offset": 0,
            "slot": "3",
            "type": "t_uint256"
          },
          {
            "astId": 3988,
            "contract": "contracts/DGTokenVendor.sol:DGTokenVendor",
            "label": "pointsAwarded",
            "offset": 0,
            "slot": "4",
            "type": "t_uint256"
          },
          {
            "astId": 3990,
            "contract": "contracts/DGTokenVendor.sol:DGTokenVendor",
            "label": "qualifyingBuyThreshold",
            "offset": 0,
            "slot": "5",
            "type": "t_uint256"
          },
          {
            "astId": 3992,
            "contract": "contracts/DGTokenVendor.sol:DGTokenVendor",
            "label": "maxSellBps",
            "offset": 0,
            "slot": "6",
            "type": "t_uint256"
          },
          {
            "astId": 3994,
            "contract": "contracts/DGTokenVendor.sol:DGTokenVendor",
            "label": "dailyLimitMultiplier",
            "offset": 0,
            "slot": "7",
            "type": "t_uint256"
          }
        ],
        "numberOfBytes": "256"
      },
      "t_struct(StageConstants)4005_storage": {
        "encoding": "inplace",
        "label": "struct IDGTokenVendor.StageConstants",
        "members": [
          {
            "astId": 3998,
            "contract": "contracts/DGTokenVendor.sol:DGTokenVendor",
            "label": "maxSellCooldown",
            "offset": 0,
            "slot": "0",
            "type": "t_uint256"
          },
          {
            "astId": 4000,
            "contract": "contracts/DGTokenVendor.sol:DGTokenVendor",
            "label": "dailyWindow",
            "offset": 0,
            "slot": "1",
            "type": "t_uint256"
          },
          {
            "astId": 4002,
            "contract": "contracts/DGTokenVendor.sol:DGTokenVendor",
            "label": "minBuyAmount",
            "offset": 0,
            "slot": "2",
            "type": "t_uint256"
          },
          {
            "astId": 4004,
            "contract": "contracts/DGTokenVendor.sol:DGTokenVendor",
            "label": "minSellAmount",
            "offset": 0,
            "slot": "3",
            "type": "t_uint256"
          }
        ],
        "numberOfBytes": "128"
      },
      "t_struct(SystemState)4060_storage": {
        "encoding": "inplace",
        "label": "struct IDGTokenVendor.SystemState",
        "members": [
          {
            "astId": 4047,
            "contract": "contracts/DGTokenVendor.sol:DGTokenVendor",
            "label": "baseTokenFees",
            "offset": 0,
            "slot": "0",
            "type": "t_uint256"
          },
          {
            "astId": 4049,
            "contract": "contracts/DGTokenVendor.sol:DGTokenVendor",
            "label": "swapTokenFees",
            "offset": 0,
            "slot": "1",
            "type": "t_uint256"
          },
          {
            "astId": 4051,
            "contract": "contracts/DGTokenVendor.sol:DGTokenVendor",
            "label": "lastRateChangeTimestamp",
            "offset": 0,
            "slot": "2",
            "type": "t_uint256"
          },
          {
            "astId": 4053,
            "contract": "contracts/DGTokenVendor.sol:DGTokenVendor",
            "label": "lastFeeChangeTimestamp",
            "offset": 0,
            "slot": "3",
            "type": "t_uint256"
          },
          {
            "astId": 4055,
            "contract": "contracts/DGTokenVendor.sol:DGTokenVendor",
            "label": "devAddress",
            "offset": 0,
            "slot": "4",
            "type": "t_address"
          },
          {
            "astId": 4057,
            "contract": "contracts/DGTokenVendor.sol:DGTokenVendor",
            "label": "stewardCouncil",
            "offset": 0,
            "slot": "5",
            "type": "t_address"
          },
          {
            "astId": 4059,
            "contract": "contracts/DGTokenVendor.sol:DGTokenVendor",
            "label": "lastDevAddressChangeTimestamp",
            "offset": 0,
            "slot": "6",
            "type": "t_uint256"
          }
        ],
        "numberOfBytes": "224"
      },
      "t_struct(TokenConfig)4044_storage": {
        "encoding": "inplace",
        "label": "struct IDGTokenVendor.TokenConfig",
        "members": [
          {
            "astId": 4038,
            "contract": "contracts/DGTokenVendor.sol:DGTokenVendor",
            "label": "baseToken",
            "offset": 0,
            "slot": "0",
            "type": "t_contract(IERC20)229"
          },
          {
            "astId": 4041,
            "contract": "contracts/DGTokenVendor.sol:DGTokenVendor",
            "label": "swapToken",
            "offset": 0,
            "slot": "1",
            "type": "t_contract(IERC20)229"
          },
          {
            "astId": 4043,
            "contract": "contracts/DGTokenVendor.sol:DGTokenVendor",
            "label": "exchangeRate",
            "offset": 0,
            "slot": "2",
            "type": "t_uint256"
          }
        ],
        "numberOfBytes": "96"
      },
      "t_struct(UserState)4020_storage": {
        "encoding": "inplace",
        "label": "struct IDGTokenVendor.UserState",
        "members": [
          {
            "astId": 4009,
            "contract": "contracts/DGTokenVendor.sol:DGTokenVendor",
            "label": "stage",
            "offset": 0,
            "slot": "0",
            "type": "t_enum(UserStage)3977"
          },
          {
            "astId": 4011,
            "contract": "contracts/DGTokenVendor.sol:DGTokenVendor",
            "label": "points",
            "offset": 0,
            "slot": "1",
            "type": "t_uint256"
          },
          {
            "astId": 4013,
            "contract": "contracts/DGTokenVendor.sol:DGTokenVendor",
            "label": "fuel",
            "offset": 0,
            "slot": "2",
            "type": "t_uint256"
          },
          {
            "astId": 4015,
            "contract": "contracts/DGTokenVendor.sol:DGTokenVendor",
            "label": "lastStage3MaxSale",
            "offset": 0,
            "slot": "3",
            "type": "t_uint256"
          },
          {
            "astId": 4017,
            "contract": "contracts/DGTokenVendor.sol:DGTokenVendor",
            "label": "dailySoldAmount",
            "offset": 0,
            "slot": "4",
            "type": "t_uint256"
          },
          {
            "astId": 4019,
            "contract": "contracts/DGTokenVendor.sol:DGTokenVendor",
            "label": "dailyWindowStart",
            "offset": 0,
            "slot": "5",
            "type": "t_uint256"
          }
        ],
        "numberOfBytes": "192"
      },
      "t_uint256": {
        "encoding": "inplace",
        "label": "uint256",
        "numberOfBytes": "32"
      }
    }
  }
}