{
  "address": "0x2Ef7DeC913e4127Fd0f94B32eeAd23ee63143598",
  "abi": [
    {
      "inputs": [
        {
          "internalType": "address",
          "name": "_baseToken",
          "type": "address"
        },
        {
          "internalType": "address",
          "name": "_swapToken",
          "type": "address"
        },
        {
          "internalType": "uint256",
          "name": "_initialExchangeRate",
          "type": "uint256"
        },
        {
          "internalType": "address",
          "name": "_devAddress",
          "type": "address"
        }
      ],
      "stateMutability": "nonpayable",
      "type": "constructor"
    },
    {
      "inputs": [],
      "name": "AppChangeCooldownStillActive",
      "type": "error"
    },
    {
      "inputs": [],
      "name": "CollectionAddressNotFound",
      "type": "error"
    },
    {
      "inputs": [],
      "name": "CollectionAlreadyAdded",
      "type": "error"
    },
    {
      "inputs": [],
      "name": "ETHTransferFailed",
      "type": "error"
    },
    {
      "inputs": [],
      "name": "ExceedsMaxWhitelistedCollections",
      "type": "error"
    },
    {
      "inputs": [],
      "name": "FeeLockStillActive",
      "type": "error"
    },
    {
      "inputs": [],
      "name": "InvalidDevAddress",
      "type": "error"
    },
    {
      "inputs": [],
      "name": "InvalidFeeBPS",
      "type": "error"
    },
    {
      "inputs": [],
      "name": "NoValidKeyForUserFound",
      "type": "error"
    },
    {
      "inputs": [
        {
          "internalType": "address",
          "name": "owner",
          "type": "address"
        }
      ],
      "name": "OwnableInvalidOwner",
      "type": "error"
    },
    {
      "inputs": [
        {
          "internalType": "address",
          "name": "account",
          "type": "address"
        }
      ],
      "name": "OwnableUnauthorizedAccount",
      "type": "error"
    },
    {
      "inputs": [],
      "name": "RateLockStillActive",
      "type": "error"
    },
    {
      "inputs": [],
      "name": "ReentrancyGuardReentrantCall",
      "type": "error"
    },
    {
      "inputs": [],
      "name": "TokenTransferFailed",
      "type": "error"
    },
    {
      "inputs": [],
      "name": "UnauthorizedCaller",
      "type": "error"
    },
    {
      "anonymous": false,
      "inputs": [
        {
          "indexed": true,
          "internalType": "address",
          "name": "to",
          "type": "address"
        },
        {
          "indexed": false,
          "internalType": "uint256",
          "name": "amount",
          "type": "uint256"
        }
      ],
      "name": "ETHWithdrawn",
      "type": "event"
    },
    {
      "anonymous": false,
      "inputs": [
        {
          "indexed": false,
          "internalType": "uint256",
          "name": "newRate",
          "type": "uint256"
        }
      ],
      "name": "ExchangeRateUpdated",
      "type": "event"
    },
    {
      "anonymous": false,
      "inputs": [
        {
          "indexed": false,
          "internalType": "uint256",
          "name": "newBuyFeeBPS",
          "type": "uint256"
        },
        {
          "indexed": false,
          "internalType": "uint256",
          "name": "newSellFeeBPS",
          "type": "uint256"
        }
      ],
      "name": "FeeRatesUpdated",
      "type": "event"
    },
    {
      "anonymous": false,
      "inputs": [
        {
          "indexed": true,
          "internalType": "address",
          "name": "to",
          "type": "address"
        },
        {
          "indexed": false,
          "internalType": "uint256",
          "name": "baseTokenFees",
          "type": "uint256"
        },
        {
          "indexed": false,
          "internalType": "uint256",
          "name": "swapTokenFees",
          "type": "uint256"
        }
      ],
      "name": "FeesWithdrawn",
      "type": "event"
    },
    {
      "anonymous": false,
      "inputs": [
        {
          "indexed": true,
          "internalType": "address",
          "name": "previousOwner",
          "type": "address"
        },
        {
          "indexed": true,
          "internalType": "address",
          "name": "newOwner",
          "type": "address"
        }
      ],
      "name": "OwnershipTransferred",
      "type": "event"
    },
    {
      "anonymous": false,
      "inputs": [
        {
          "indexed": true,
          "internalType": "address",
          "name": "buyer",
          "type": "address"
        },
        {
          "indexed": false,
          "internalType": "uint256",
          "name": "baseTokenAmount",
          "type": "uint256"
        },
        {
          "indexed": false,
          "internalType": "uint256",
          "name": "swapTokenAmount",
          "type": "uint256"
        },
        {
          "indexed": false,
          "internalType": "uint256",
          "name": "fee",
          "type": "uint256"
        }
      ],
      "name": "TokensPurchased",
      "type": "event"
    },
    {
      "anonymous": false,
      "inputs": [
        {
          "indexed": true,
          "internalType": "address",
          "name": "seller",
          "type": "address"
        },
        {
          "indexed": false,
          "internalType": "uint256",
          "name": "swapTokenAmount",
          "type": "uint256"
        },
        {
          "indexed": false,
          "internalType": "uint256",
          "name": "baseTokenAmount",
          "type": "uint256"
        },
        {
          "indexed": false,
          "internalType": "uint256",
          "name": "fee",
          "type": "uint256"
        }
      ],
      "name": "TokensSold",
      "type": "event"
    },
    {
      "anonymous": false,
      "inputs": [
        {
          "indexed": true,
          "internalType": "address",
          "name": "collectionAddress",
          "type": "address"
        }
      ],
      "name": "WhitelistedCollectionAdded",
      "type": "event"
    },
    {
      "anonymous": false,
      "inputs": [
        {
          "indexed": true,
          "internalType": "address",
          "name": "collectionAddress",
          "type": "address"
        }
      ],
      "name": "WhitelistedCollectionRemoved",
      "type": "event"
    },
    {
      "inputs": [],
      "name": "APP_CHANGE_COOLDOWN",
      "outputs": [
        {
          "internalType": "uint256",
          "name": "",
          "type": "uint256"
        }
      ],
      "stateMutability": "view",
      "type": "function"
    },
    {
      "inputs": [],
      "name": "BASIS_POINTS",
      "outputs": [
        {
          "internalType": "uint256",
          "name": "",
          "type": "uint256"
        }
      ],
      "stateMutability": "view",
      "type": "function"
    },
    {
      "inputs": [],
      "name": "DEV_ADDRESS",
      "outputs": [
        {
          "internalType": "address",
          "name": "",
          "type": "address"
        }
      ],
      "stateMutability": "view",
      "type": "function"
    },
    {
      "inputs": [],
      "name": "MAX_FEE_BPS",
      "outputs": [
        {
          "internalType": "uint256",
          "name": "",
          "type": "uint256"
        }
      ],
      "stateMutability": "view",
      "type": "function"
    },
    {
      "inputs": [],
      "name": "MAX_WHITELISTED_COLLECTIONS",
      "outputs": [
        {
          "internalType": "uint256",
          "name": "",
          "type": "uint256"
        }
      ],
      "stateMutability": "view",
      "type": "function"
    },
    {
      "inputs": [],
      "name": "NAME",
      "outputs": [
        {
          "internalType": "string",
          "name": "",
          "type": "string"
        }
      ],
      "stateMutability": "view",
      "type": "function"
    },
    {
      "inputs": [],
      "name": "RATE_CHANGE_COOLDOWN",
      "outputs": [
        {
          "internalType": "uint256",
          "name": "",
          "type": "uint256"
        }
      ],
      "stateMutability": "view",
      "type": "function"
    },
    {
      "inputs": [],
      "name": "VERSION",
      "outputs": [
        {
          "internalType": "uint64",
          "name": "",
          "type": "uint64"
        }
      ],
      "stateMutability": "view",
      "type": "function"
    },
    {
      "inputs": [
        {
          "internalType": "address",
          "name": "collectionAddress",
          "type": "address"
        }
      ],
      "name": "addWhitelistedCollection",
      "outputs": [],
      "stateMutability": "nonpayable",
      "type": "function"
    },
    {
      "inputs": [],
      "name": "baseToken",
      "outputs": [
        {
          "internalType": "contract IERC20",
          "name": "",
          "type": "address"
        }
      ],
      "stateMutability": "view",
      "type": "function"
    },
    {
      "inputs": [],
      "name": "baseTokenFees",
      "outputs": [
        {
          "internalType": "uint256",
          "name": "",
          "type": "uint256"
        }
      ],
      "stateMutability": "view",
      "type": "function"
    },
    {
      "inputs": [
        {
          "internalType": "address[]",
          "name": "collections",
          "type": "address[]"
        }
      ],
      "name": "batchAddWhitelistedCollections",
      "outputs": [],
      "stateMutability": "nonpayable",
      "type": "function"
    },
    {
      "inputs": [],
      "name": "buyFeeBPS",
      "outputs": [
        {
          "internalType": "uint256",
          "name": "",
          "type": "uint256"
        }
      ],
      "stateMutability": "view",
      "type": "function"
    },
    {
      "inputs": [
        {
          "internalType": "uint256",
          "name": "amount",
          "type": "uint256"
        }
      ],
      "name": "buyTokens",
      "outputs": [],
      "stateMutability": "nonpayable",
      "type": "function"
    },
    {
      "inputs": [],
      "name": "canChangeExchangeRate",
      "outputs": [
        {
          "internalType": "bool",
          "name": "",
          "type": "bool"
        }
      ],
      "stateMutability": "view",
      "type": "function"
    },
    {
      "inputs": [],
      "name": "canChangeFeeRates",
      "outputs": [
        {
          "internalType": "bool",
          "name": "",
          "type": "bool"
        }
      ],
      "stateMutability": "view",
      "type": "function"
    },
    {
      "inputs": [],
      "name": "exchangeRate",
      "outputs": [
        {
          "internalType": "uint256",
          "name": "",
          "type": "uint256"
        }
      ],
      "stateMutability": "view",
      "type": "function"
    },
    {
      "inputs": [
        {
          "internalType": "address",
          "name": "user",
          "type": "address"
        }
      ],
      "name": "getFirstValidKeyCollection",
      "outputs": [
        {
          "internalType": "address",
          "name": "",
          "type": "address"
        }
      ],
      "stateMutability": "view",
      "type": "function"
    },
    {
      "inputs": [],
      "name": "getWhitelistedCollections",
      "outputs": [
        {
          "internalType": "address[]",
          "name": "",
          "type": "address[]"
        }
      ],
      "stateMutability": "view",
      "type": "function"
    },
    {
      "inputs": [
        {
          "internalType": "address",
          "name": "user",
          "type": "address"
        }
      ],
      "name": "hasValidKey",
      "outputs": [
        {
          "internalType": "bool",
          "name": "",
          "type": "bool"
        }
      ],
      "stateMutability": "view",
      "type": "function"
    },
    {
      "inputs": [],
      "name": "lastDevAddressChangeTimestamp",
      "outputs": [
        {
          "internalType": "uint256",
          "name": "",
          "type": "uint256"
        }
      ],
      "stateMutability": "view",
      "type": "function"
    },
    {
      "inputs": [],
      "name": "lastFeeChangeTimestamp",
      "outputs": [
        {
          "internalType": "uint256",
          "name": "",
          "type": "uint256"
        }
      ],
      "stateMutability": "view",
      "type": "function"
    },
    {
      "inputs": [],
      "name": "lastRateChangeTimestamp",
      "outputs": [
        {
          "internalType": "uint256",
          "name": "",
          "type": "uint256"
        }
      ],
      "stateMutability": "view",
      "type": "function"
    },
    {
      "inputs": [],
      "name": "owner",
      "outputs": [
        {
          "internalType": "address",
          "name": "",
          "type": "address"
        }
      ],
      "stateMutability": "view",
      "type": "function"
    },
    {
      "inputs": [
        {
          "internalType": "address",
          "name": "collectionAddress",
          "type": "address"
        }
      ],
      "name": "removeWhitelistedCollection",
      "outputs": [],
      "stateMutability": "nonpayable",
      "type": "function"
    },
    {
      "inputs": [],
      "name": "renounceOwnership",
      "outputs": [],
      "stateMutability": "nonpayable",
      "type": "function"
    },
    {
      "inputs": [],
      "name": "sellFeeBPS",
      "outputs": [
        {
          "internalType": "uint256",
          "name": "",
          "type": "uint256"
        }
      ],
      "stateMutability": "view",
      "type": "function"
    },
    {
      "inputs": [
        {
          "internalType": "uint256",
          "name": "amount",
          "type": "uint256"
        }
      ],
      "name": "sellTokens",
      "outputs": [],
      "stateMutability": "nonpayable",
      "type": "function"
    },
    {
      "inputs": [
        {
          "internalType": "address",
          "name": "newDevAddress",
          "type": "address"
        }
      ],
      "name": "setDevAddress",
      "outputs": [],
      "stateMutability": "nonpayable",
      "type": "function"
    },
    {
      "inputs": [
        {
          "internalType": "uint256",
          "name": "newRate",
          "type": "uint256"
        }
      ],
      "name": "setExchangeRate",
      "outputs": [],
      "stateMutability": "nonpayable",
      "type": "function"
    },
    {
      "inputs": [
        {
          "internalType": "uint256",
          "name": "newBuyFeeBPS",
          "type": "uint256"
        },
        {
          "internalType": "uint256",
          "name": "newSellFeeBPS",
          "type": "uint256"
        }
      ],
      "name": "setFeeRates",
      "outputs": [],
      "stateMutability": "nonpayable",
      "type": "function"
    },
    {
      "inputs": [],
      "name": "swapToken",
      "outputs": [
        {
          "internalType": "contract IERC20",
          "name": "",
          "type": "address"
        }
      ],
      "stateMutability": "view",
      "type": "function"
    },
    {
      "inputs": [],
      "name": "swapTokenFees",
      "outputs": [
        {
          "internalType": "uint256",
          "name": "",
          "type": "uint256"
        }
      ],
      "stateMutability": "view",
      "type": "function"
    },
    {
      "inputs": [
        {
          "internalType": "address",
          "name": "newOwner",
          "type": "address"
        }
      ],
      "name": "transferOwnership",
      "outputs": [],
      "stateMutability": "nonpayable",
      "type": "function"
    },
    {
      "inputs": [],
      "name": "withdrawETH",
      "outputs": [],
      "stateMutability": "nonpayable",
      "type": "function"
    },
    {
      "inputs": [],
      "name": "withdrawFees",
      "outputs": [],
      "stateMutability": "nonpayable",
      "type": "function"
    },
    {
      "stateMutability": "payable",
      "type": "receive"
    }
  ],
  "transactionHash": "0x1e2325073ba51e1a69a8ffc441114245dcb7c0c42fe2ddd10d8502863cf12ac2",
  "args": [
    "0xaC27fa800955849d6D17cC8952Ba9dD6EAA66187",
    "0x04A79EA9dAF3F3FbA76e7CF231829f9cbAC8d9f1",
    10,
    "0xca7632327567796e51920f6b16373e92c7823854"
  ],
  "numDeployments": 1,
  "solcInputHash": "065964863f821b31a189fad4d173f95d",
  "bytecode": "0x60806040523480156200001157600080fd5b5060405162001a7538038062001a75833981016040819052620000349162000139565b33806200005b57604051631e4fbdf760e01b81526000600482015260240160405180910390fd5b6200006681620000cc565b5060018055600380546001600160a01b03199081166001600160a01b039687161790915560048054821694861694909417909355600691909155426007819055606460085560c8600955600a81905560028054909316919093161790556005556200018d565b600080546001600160a01b038381166001600160a01b0319831681178455604051919092169283917f8be0079c531659141344cd1fd0a4f28419497f9722a3daafe3b4186f6b6457e09190a35050565b80516001600160a01b03811681146200013457600080fd5b919050565b600080600080608085870312156200015057600080fd5b6200015b856200011c565b93506200016b602086016200011c565b92506040850151915062000182606086016200011c565b905092959194509250565b6118d8806200019d6000396000f3fe6080604052600436106102135760003560e01c8063ab65d99711610118578063d55be8c6116100a0578063e086e5ec1161006f578063e086e5ec146105c1578063e1f1c4a7146105d6578063f2fde38b146105ec578063feaca5831461060c578063ffa1ad741461062c57600080fd5b8063d55be8c614610555578063d70c401b1461056b578063db068e0e14610581578063dc73e49c146105a157600080fd5b8063c55dae63116100e7578063c55dae63146104c9578063c8ade8c8146104e9578063ce3d52d7146104ff578063d0d41fe114610515578063d18e629c1461053557600080fd5b8063ab65d9971461045c578063abd6dfb01461047c578063ba5d05e31461049c578063c53b368a146104b357600080fd5b806362553e141161019b578063883a4c901161016a578063883a4c90146103a95780638b0279d2146103bf5780638ca8cc9b146103e15780638da5cb5b146103f6578063a3f4df7e1461041457600080fd5b806362553e141461033d5780636c11bcd31461035d5780636eaa7ba21461037d578063715018a61461039457600080fd5b8063376ce13e116101e2578063376ce13e146102af5780633ba0b9a9146102c5578063476343ee146102db57806349fea517146102f05780635639e8cf1461030557600080fd5b806304898ad71461021f5780632f036c901461024157806330516a031461026b5780633610724e1461028f57600080fd5b3661021a57005b600080fd5b34801561022b57600080fd5b5061023f61023a366004611645565b61065a565b005b34801561024d57600080fd5b5061025661079f565b60405190151581526020015b60405180910390f35b34801561027757600080fd5b5061028160055481565b604051908152602001610262565b34801561029b57600080fd5b5061023f6102aa3660046116ba565b6107ba565b3480156102bb57600080fd5b5061028160085481565b3480156102d157600080fd5b5061028160065481565b3480156102e757600080fd5b5061023f6109ca565b3480156102fc57600080fd5b50610281600a81565b34801561031157600080fd5b50600254610325906001600160a01b031681565b6040516001600160a01b039091168152602001610262565b34801561034957600080fd5b5061023f6103583660046116d3565b610bcb565b34801561036957600080fd5b5061023f6103783660046116ba565b610ce8565b34801561038957600080fd5b506102816276a70081565b3480156103a057600080fd5b5061023f610ee3565b3480156103b557600080fd5b50610281600d5481565b3480156103cb57600080fd5b506103d4610ef5565b6040516102629190611703565b3480156103ed57600080fd5b50610256610f57565b34801561040257600080fd5b506000546001600160a01b0316610325565b34801561042057600080fd5b5061044f6040518060400160405280600f81526020016e4447546f6b656e56656e646f72563160881b81525081565b6040516102629190611750565b34801561046857600080fd5b506103256104773660046116d3565b610f6a565b34801561048857600080fd5b506102566104973660046116d3565b611051565b3480156104a857600080fd5b506102816283d60081565b3480156104bf57600080fd5b5061028160095481565b3480156104d557600080fd5b50600354610325906001600160a01b031681565b3480156104f557600080fd5b50610281600a5481565b34801561050b57600080fd5b5061028160075481565b34801561052157600080fd5b5061023f6105303660046116d3565b611123565b34801561054157600080fd5b5061023f6105503660046116d3565b6111a5565b34801561056157600080fd5b506102816103e881565b34801561057757600080fd5b50610281600c5481565b34801561058d57600080fd5b5061023f61059c3660046116ba565b61126f565b3480156105ad57600080fd5b50600454610325906001600160a01b031681565b3480156105cd57600080fd5b5061023f6112e7565b3480156105e257600080fd5b5061028161271081565b3480156105f857600080fd5b5061023f6106073660046116d3565b6113e4565b34801561061857600080fd5b5061023f61062736600461179e565b611424565b34801561063857600080fd5b50610641600181565b60405167ffffffffffffffff9091168152602001610262565b6106626114d7565b600b54600a906106739083906117d6565b111561069257604051630ef0d4a960e11b815260040160405180910390fd5b60005b8181101561079a576106cc8383838181106106b2576106b26117ef565b90506020020160208101906106c791906116d3565b611504565b61078857600b8383838181106106e4576106e46117ef565b90506020020160208101906106f991906116d3565b81546001810183556000928352602090922090910180546001600160a01b0319166001600160a01b0390921691909117905582828281811061073d5761073d6117ef565b905060200201602081019061075291906116d3565b6001600160a01b03167f6ceaa522e49a50257b61147d8087ceb07e0921738699c728fa2d83b5eff6fd9260405160405180910390a25b8061079281611805565b915050610695565b505050565b60006276a7006007546107b291906117d6565b421015905090565b6107c2611564565b6107cb33611051565b6107e85760405163e4c147b760e01b815260040160405180910390fd5b6000612710600854836107fb919061181e565b6108059190611835565b905060006108138284611857565b9050600060065482610825919061181e565b905082600c600082825461083991906117d6565b90915550506003546040516323b872dd60e01b8152336004820152306024820152604481018690526000916001600160a01b0316906323b872dd906064016020604051808303816000875af1158015610896573d6000803e3d6000fd5b505050506040513d601f19601f820116820180604052508101906108ba919061186a565b9050806108da5760405163022e258160e11b815260040160405180910390fd5b6004805460405163a9059cbb60e01b81523392810192909252602482018490526000916001600160a01b039091169063a9059cbb906044016020604051808303816000875af1158015610931573d6000803e3d6000fd5b505050506040513d601f19601f82011682018060405250810190610955919061186a565b9050806109755760405163022e258160e11b815260040160405180910390fd5b604080518781526020810185905290810186905233907f0d1a0d5e3d583a0e92588799dd06e50fd78c07daf05f0cc06d7b848b1ca445f1906060015b60405180910390a250505050506109c760018055565b50565b6109d2611564565b6000546001600160a01b03163314806109f557506002546001600160a01b031633145b610a1257604051635c427cd960e01b815260040160405180910390fd5b600254600c8054600d80546000938490559290556001600160a01b0390921691908115610ad35760035460405163a9059cbb60e01b81526001600160a01b03858116600483015260248201859052600092169063a9059cbb906044016020604051808303816000875af1158015610a8d573d6000803e3d6000fd5b505050506040513d601f19601f82011682018060405250810190610ab1919061186a565b905080610ad15760405163022e258160e11b815260040160405180910390fd5b505b8015610b78576004805460405163a9059cbb60e01b81526001600160a01b0386811693820193909352602481018490526000929091169063a9059cbb906044016020604051808303816000875af1158015610b32573d6000803e3d6000fd5b505050506040513d601f19601f82011682018060405250810190610b56919061186a565b905080610b765760405163022e258160e11b815260040160405180910390fd5b505b60408051838152602081018390526001600160a01b038516917fdeb5099d7943aa2b4c1142e5d53d2f7636aa8f7bd130ec79816f151572bcdf4591015b60405180910390a2505050610bc960018055565b565b610bd36114d7565b6000610bde8261158e565b600b549091508110610c03576040516387ad0f3f60e01b815260040160405180910390fd5b600b8054610c1390600190611857565b81548110610c2357610c236117ef565b600091825260209091200154600b80546001600160a01b039092169183908110610c4f57610c4f6117ef565b9060005260206000200160006101000a8154816001600160a01b0302191690836001600160a01b03160217905550600b805480610c8e57610c8e61188c565b600082815260208120820160001990810180546001600160a01b03191690559091019091556040516001600160a01b038416917f0c1f38a01270cb49fbf915151e8a1908ccf738f8c3d79a1677f8fd879b56bdef91a25050565b610cf0611564565b610cf933611051565b610d165760405163e4c147b760e01b815260040160405180910390fd5b600061271060095483610d29919061181e565b610d339190611835565b90506000610d418284611857565b9050600060065482610d539190611835565b905082600d6000828254610d6791906117d6565b9091555050600480546040516323b872dd60e01b81523392810192909252306024830152604482018690526000916001600160a01b03909116906323b872dd906064016020604051808303816000875af1158015610dc9573d6000803e3d6000fd5b505050506040513d601f19601f82011682018060405250810190610ded919061186a565b905080610e0d5760405163022e258160e11b815260040160405180910390fd5b60035460405163a9059cbb60e01b8152336004820152602481018490526000916001600160a01b03169063a9059cbb906044016020604051808303816000875af1158015610e5f573d6000803e3d6000fd5b505050506040513d601f19601f82011682018060405250810190610e83919061186a565b905080610ea35760405163022e258160e11b815260040160405180910390fd5b604080518781526020810185905290810186905233907f6db63bebf1e6540277744df32846ebdb98385b1a73f2d5de49b28348add63f50906060016109b1565b610eeb6114d7565b610bc960006115f5565b6060600b805480602002602001604051908101604052809291908181526020018280548015610f4d57602002820191906000526020600020905b81546001600160a01b03168152600190910190602001808311610f2f575b5050505050905090565b60006283d600600a546107b291906117d6565b6000805b600b5481101561104857600b8181548110610f8b57610f8b6117ef565b600091825260209091200154604051631b63a96d60e21b81526001600160a01b03858116600483015290911690636d8ea5b490602401602060405180830381865afa158015610fde573d6000803e3d6000fd5b505050506040513d601f19601f82011682018060405250810190611002919061186a565b1561103657600b818154811061101a5761101a6117ef565b6000918252602090912001546001600160a01b03169392505050565b8061104081611805565b915050610f6e565b50600092915050565b600b54600090810361106557506000919050565b60005b600b54811015611048576000600b8281548110611087576110876117ef565b600091825260209091200154604051631b63a96d60e21b81526001600160a01b03868116600483015290911691508190636d8ea5b490602401602060405180830381865afa1580156110dd573d6000803e3d6000fd5b505050506040513d601f19601f82011682018060405250810190611101919061186a565b15611110575060019392505050565b508061111b81611805565b915050611068565b61112b6114d7565b6001600160a01b03811661115257604051636a37fde960e01b815260040160405180910390fd5b6283d60060055461116391906117d6565b421015611183576040516326f4231b60e11b815260040160405180910390fd5b600280546001600160a01b0319166001600160a01b0392909216919091179055565b6111ad6114d7565b600b54600a116111d057604051630ef0d4a960e11b815260040160405180910390fd5b6111d981611504565b156111f757604051633b461ab760e01b815260040160405180910390fd5b600b805460018101825560009182527f0175b7a638427703f0dbe7bb9bbf987a2551717b34e79f33b5b1008d1fa01db90180546001600160a01b0319166001600160a01b03841690811790915560405190917f6ceaa522e49a50257b61147d8087ceb07e0921738699c728fa2d83b5eff6fd9291a250565b6112776114d7565b6276a70060075461128891906117d6565b4210156112a857604051634269523560e01b815260040160405180910390fd5b6006819055426007556040518181527f388f446e9526fe5c9af20a5919b342370c8a7c0cb05245afe1e545658fa3cdba9060200160405180910390a150565b6112ef611564565b6000546001600160a01b031633148061131257506002546001600160a01b031633145b61132f57604051635c427cd960e01b815260040160405180910390fd5b6002546040516001600160a01b03909116904790600090839083908381818185875af1925050503d8060008114611382576040519150601f19603f3d011682016040523d82523d6000602084013e611387565b606091505b50509050806113a95760405163b12d13eb60e01b815260040160405180910390fd5b826001600160a01b03167f94b2de810873337ed265c5f8cf98c9cffefa06b8607f9a2f1fbaebdfbcfbef1c83604051610bb591815260200190565b6113ec6114d7565b6001600160a01b03811661141b57604051631e4fbdf760e01b8152600060048201526024015b60405180910390fd5b6109c7816115f5565b61142c6114d7565b6283d600600a5461143d91906117d6565b42101561145d576040516320c2ffdb60e21b815260040160405180910390fd5b6103e882118061146e57506103e881115b1561148c5760405163530da5b960e01b815260040160405180910390fd5b6008829055600981905542600a5560408051838152602081018390527f4f672c50736ba0fe8a4825ecfde8bcd931727422a77ac89af44fccce2746e0b3910160405180910390a15050565b6000546001600160a01b03163314610bc95760405163118cdaa760e01b8152336004820152602401611412565b6000805b600b5481101561104857826001600160a01b0316600b828154811061152f5761152f6117ef565b6000918252602090912001546001600160a01b0316036115525750600192915050565b8061155c81611805565b915050611508565b60026001540361158757604051633ee5aeb560e01b815260040160405180910390fd5b6002600155565b6000805b600b548110156115eb57826001600160a01b0316600b82815481106115b9576115b96117ef565b6000918252602090912001546001600160a01b0316036115d95792915050565b806115e381611805565b915050611592565b5050600b54919050565b600080546001600160a01b038381166001600160a01b0319831681178455604051919092169283917f8be0079c531659141344cd1fd0a4f28419497f9722a3daafe3b4186f6b6457e09190a35050565b6000806020838503121561165857600080fd5b823567ffffffffffffffff8082111561167057600080fd5b818501915085601f83011261168457600080fd5b81358181111561169357600080fd5b8660208260051b85010111156116a857600080fd5b60209290920196919550909350505050565b6000602082840312156116cc57600080fd5b5035919050565b6000602082840312156116e557600080fd5b81356001600160a01b03811681146116fc57600080fd5b9392505050565b6020808252825182820181905260009190848201906040850190845b818110156117445783516001600160a01b03168352928401929184019160010161171f565b50909695505050505050565b600060208083528351808285015260005b8181101561177d57858101830151858201604001528201611761565b506000604082860101526040601f19601f8301168501019250505092915050565b600080604083850312156117b157600080fd5b50508035926020909101359150565b634e487b7160e01b600052601160045260246000fd5b808201808211156117e9576117e96117c0565b92915050565b634e487b7160e01b600052603260045260246000fd5b600060018201611817576118176117c0565b5060010190565b80820281158282048414176117e9576117e96117c0565b60008261185257634e487b7160e01b600052601260045260246000fd5b500490565b818103818111156117e9576117e96117c0565b60006020828403121561187c57600080fd5b815180151581146116fc57600080fd5b634e487b7160e01b600052603160045260246000fdfea2646970667358221220dcbc0b06f0a306d198538891a1207246dc2c8a99a2fc1a56768298272bc38f6264736f6c63430008140033",
  "devdoc": {
    "errors": {
      "OwnableInvalidOwner(address)": [
        {
          "details": "The owner is not a valid owner account. (eg. `address(0)`)"
        }
      ],
      "OwnableUnauthorizedAccount(address)": [
        {
          "details": "The caller account is not authorized to perform an operation."
        }
      ],
      "ReentrancyGuardReentrantCall()": [
        {
          "details": "Unauthorized reentrant call."
        }
      ]
    },
    "kind": "dev",
    "methods": {
      "addWhitelistedCollection(address)": {
        "details": "Add a collection to the whitelist",
        "params": {
          "collectionAddress": "Address of the NFT collection to add"
        }
      },
      "batchAddWhitelistedCollections(address[])": {
        "details": "Add multiple collections to the whitelist",
        "params": {
          "collections": "Array of collection addresses to add"
        }
      },
      "buyTokens(uint256)": {
        "details": "Buy swap tokens using base tokens",
        "params": {
          "amount": "Amount of base tokens to spend"
        }
      },
      "canChangeExchangeRate()": {
        "details": "Check if a user can change the exchange rate",
        "returns": {
          "_0": "True if the rate change cooldown has passed, false otherwise"
        }
      },
      "canChangeFeeRates()": {
        "details": "Check if fee rates can be changed",
        "returns": {
          "_0": "True if the fee change cooldown has passed, false otherwise"
        }
      },
      "getFirstValidKeyCollection(address)": {
        "details": "Returns the address of the first collection for which the user has a valid key",
        "params": {
          "user": "Address of the user to check"
        },
        "returns": {
          "_0": "The address of the first valid collection, or address(0) if none found"
        }
      },
      "getWhitelistedCollections()": {
        "details": "Get all whitelisted collections",
        "returns": {
          "_0": "Array of whitelisted collection addresses"
        }
      },
      "hasValidKey(address)": {
        "details": "Check if a user has a valid key to any of the whitelisted collections",
        "params": {
          "user": "Address of the user to check"
        },
        "returns": {
          "_0": "True if the user has a valid key, false otherwise"
        }
      },
      "owner()": {
        "details": "Returns the address of the current owner."
      },
      "removeWhitelistedCollection(address)": {
        "details": "Remove a collection from the whitelist",
        "params": {
          "collectionAddress": "Address of the NFT collection to remove"
        }
      },
      "renounceOwnership()": {
        "details": "Leaves the contract without owner. It will not be possible to call `onlyOwner` functions. Can only be called by the current owner. NOTE: Renouncing ownership will leave the contract without an owner, thereby disabling any functionality that is only available to the owner."
      },
      "sellTokens(uint256)": {
        "details": "Sell swap tokens for base tokens",
        "params": {
          "amount": "Amount of swap tokens to sell"
        }
      },
      "setExchangeRate(uint256)": {
        "details": "Update the exchange rate (only once per 90 days)",
        "params": {
          "newRate": "New exchange rate"
        }
      },
      "setFeeRates(uint256,uint256)": {
        "details": "Update both buy and sell fee rates (only once per 90 days)",
        "params": {
          "newBuyFeeBPS": "New buy fee in basis points",
          "newSellFeeBPS": "New sell fee in basis points"
        }
      },
      "transferOwnership(address)": {
        "details": "Transfers ownership of the contract to a new account (`newOwner`). Can only be called by the current owner."
      },
      "withdrawETH()": {
        "details": "Withdraw ETH from the contract (only admin)"
      },
      "withdrawFees()": {
        "details": "Withdraw accumulated fees to a specified address"
      }
    },
    "version": 1
  },
  "userdoc": {
    "kind": "user",
    "methods": {},
    "version": 1
  },
  "storageLayout": {
    "storage": [
      {
        "astId": 8,
        "contract": "contracts/DGTokenVendor.sol:DGTokenVendor",
        "label": "_owner",
        "offset": 0,
        "slot": "0",
        "type": "t_address"
      },
      {
        "astId": 387,
        "contract": "contracts/DGTokenVendor.sol:DGTokenVendor",
        "label": "_status",
        "offset": 0,
        "slot": "1",
        "type": "t_uint256"
      },
      {
        "astId": 527,
        "contract": "contracts/DGTokenVendor.sol:DGTokenVendor",
        "label": "DEV_ADDRESS",
        "offset": 0,
        "slot": "2",
        "type": "t_address"
      },
      {
        "astId": 536,
        "contract": "contracts/DGTokenVendor.sol:DGTokenVendor",
        "label": "baseToken",
        "offset": 0,
        "slot": "3",
        "type": "t_contract(IERC20)229"
      },
      {
        "astId": 539,
        "contract": "contracts/DGTokenVendor.sol:DGTokenVendor",
        "label": "swapToken",
        "offset": 0,
        "slot": "4",
        "type": "t_contract(IERC20)229"
      },
      {
        "astId": 541,
        "contract": "contracts/DGTokenVendor.sol:DGTokenVendor",
        "label": "lastDevAddressChangeTimestamp",
        "offset": 0,
        "slot": "5",
        "type": "t_uint256"
      },
      {
        "astId": 543,
        "contract": "contracts/DGTokenVendor.sol:DGTokenVendor",
        "label": "exchangeRate",
        "offset": 0,
        "slot": "6",
        "type": "t_uint256"
      },
      {
        "astId": 545,
        "contract": "contracts/DGTokenVendor.sol:DGTokenVendor",
        "label": "lastRateChangeTimestamp",
        "offset": 0,
        "slot": "7",
        "type": "t_uint256"
      },
      {
        "astId": 547,
        "contract": "contracts/DGTokenVendor.sol:DGTokenVendor",
        "label": "buyFeeBPS",
        "offset": 0,
        "slot": "8",
        "type": "t_uint256"
      },
      {
        "astId": 549,
        "contract": "contracts/DGTokenVendor.sol:DGTokenVendor",
        "label": "sellFeeBPS",
        "offset": 0,
        "slot": "9",
        "type": "t_uint256"
      },
      {
        "astId": 551,
        "contract": "contracts/DGTokenVendor.sol:DGTokenVendor",
        "label": "lastFeeChangeTimestamp",
        "offset": 0,
        "slot": "10",
        "type": "t_uint256"
      },
      {
        "astId": 554,
        "contract": "contracts/DGTokenVendor.sol:DGTokenVendor",
        "label": "whitelistedCollections",
        "offset": 0,
        "slot": "11",
        "type": "t_array(t_address)dyn_storage"
      },
      {
        "astId": 556,
        "contract": "contracts/DGTokenVendor.sol:DGTokenVendor",
        "label": "baseTokenFees",
        "offset": 0,
        "slot": "12",
        "type": "t_uint256"
      },
      {
        "astId": 558,
        "contract": "contracts/DGTokenVendor.sol:DGTokenVendor",
        "label": "swapTokenFees",
        "offset": 0,
        "slot": "13",
        "type": "t_uint256"
      }
    ],
    "types": {
      "t_address": {
        "encoding": "inplace",
        "label": "address",
        "numberOfBytes": "20"
      },
      "t_array(t_address)dyn_storage": {
        "base": "t_address",
        "encoding": "dynamic_array",
        "label": "address[]",
        "numberOfBytes": "32"
      },
      "t_contract(IERC20)229": {
        "encoding": "inplace",
        "label": "contract IERC20",
        "numberOfBytes": "20"
      },
      "t_uint256": {
        "encoding": "inplace",
        "label": "uint256",
        "numberOfBytes": "32"
      }
    }
  }
}