{
  "address": "0x4aA47eD29959c7053996d8f7918db01A62D02ee5",
  "abi": [
    {
      "inputs": [
        {
          "internalType": "address",
          "name": "_council",
          "type": "address"
        },
        {
          "internalType": "address",
          "name": "_dev",
          "type": "address"
        },
        {
          "internalType": "uint256",
          "name": "initialSupply",
          "type": "uint256"
        }
      ],
      "stateMutability": "nonpayable",
      "type": "constructor"
    },
    {
      "inputs": [],
      "name": "AccessControlBadConfirmation",
      "type": "error"
    },
    {
      "inputs": [
        {
          "internalType": "uint48",
          "name": "schedule",
          "type": "uint48"
        }
      ],
      "name": "AccessControlEnforcedDefaultAdminDelay",
      "type": "error"
    },
    {
      "inputs": [],
      "name": "AccessControlEnforcedDefaultAdminRules",
      "type": "error"
    },
    {
      "inputs": [
        {
          "internalType": "address",
          "name": "defaultAdmin",
          "type": "address"
        }
      ],
      "name": "AccessControlInvalidDefaultAdmin",
      "type": "error"
    },
    {
      "inputs": [
        {
          "internalType": "address",
          "name": "account",
          "type": "address"
        },
        {
          "internalType": "bytes32",
          "name": "neededRole",
          "type": "bytes32"
        }
      ],
      "name": "AccessControlUnauthorizedAccount",
      "type": "error"
    },
    {
      "inputs": [
        {
          "internalType": "address",
          "name": "spender",
          "type": "address"
        },
        {
          "internalType": "uint256",
          "name": "allowance",
          "type": "uint256"
        },
        {
          "internalType": "uint256",
          "name": "needed",
          "type": "uint256"
        }
      ],
      "name": "ERC20InsufficientAllowance",
      "type": "error"
    },
    {
      "inputs": [
        {
          "internalType": "address",
          "name": "sender",
          "type": "address"
        },
        {
          "internalType": "uint256",
          "name": "balance",
          "type": "uint256"
        },
        {
          "internalType": "uint256",
          "name": "needed",
          "type": "uint256"
        }
      ],
      "name": "ERC20InsufficientBalance",
      "type": "error"
    },
    {
      "inputs": [
        {
          "internalType": "address",
          "name": "approver",
          "type": "address"
        }
      ],
      "name": "ERC20InvalidApprover",
      "type": "error"
    },
    {
      "inputs": [
        {
          "internalType": "address",
          "name": "receiver",
          "type": "address"
        }
      ],
      "name": "ERC20InvalidReceiver",
      "type": "error"
    },
    {
      "inputs": [
        {
          "internalType": "address",
          "name": "sender",
          "type": "address"
        }
      ],
      "name": "ERC20InvalidSender",
      "type": "error"
    },
    {
      "inputs": [
        {
          "internalType": "address",
          "name": "spender",
          "type": "address"
        }
      ],
      "name": "ERC20InvalidSpender",
      "type": "error"
    },
    {
      "inputs": [
        {
          "internalType": "uint8",
          "name": "bits",
          "type": "uint8"
        },
        {
          "internalType": "uint256",
          "name": "value",
          "type": "uint256"
        }
      ],
      "name": "SafeCastOverflowedUintDowncast",
      "type": "error"
    },
    {
      "anonymous": false,
      "inputs": [
        {
          "indexed": true,
          "internalType": "address",
          "name": "owner",
          "type": "address"
        },
        {
          "indexed": true,
          "internalType": "address",
          "name": "spender",
          "type": "address"
        },
        {
          "indexed": false,
          "internalType": "uint256",
          "name": "value",
          "type": "uint256"
        }
      ],
      "name": "Approval",
      "type": "event"
    },
    {
      "anonymous": false,
      "inputs": [],
      "name": "DefaultAdminDelayChangeCanceled",
      "type": "event"
    },
    {
      "anonymous": false,
      "inputs": [
        {
          "indexed": false,
          "internalType": "uint48",
          "name": "newDelay",
          "type": "uint48"
        },
        {
          "indexed": false,
          "internalType": "uint48",
          "name": "effectSchedule",
          "type": "uint48"
        }
      ],
      "name": "DefaultAdminDelayChangeScheduled",
      "type": "event"
    },
    {
      "anonymous": false,
      "inputs": [],
      "name": "DefaultAdminTransferCanceled",
      "type": "event"
    },
    {
      "anonymous": false,
      "inputs": [
        {
          "indexed": true,
          "internalType": "address",
          "name": "newAdmin",
          "type": "address"
        },
        {
          "indexed": false,
          "internalType": "uint48",
          "name": "acceptSchedule",
          "type": "uint48"
        }
      ],
      "name": "DefaultAdminTransferScheduled",
      "type": "event"
    },
    {
      "anonymous": false,
      "inputs": [
        {
          "indexed": true,
          "internalType": "bytes32",
          "name": "role",
          "type": "bytes32"
        },
        {
          "indexed": true,
          "internalType": "bytes32",
          "name": "previousAdminRole",
          "type": "bytes32"
        },
        {
          "indexed": true,
          "internalType": "bytes32",
          "name": "newAdminRole",
          "type": "bytes32"
        }
      ],
      "name": "RoleAdminChanged",
      "type": "event"
    },
    {
      "anonymous": false,
      "inputs": [
        {
          "indexed": true,
          "internalType": "bytes32",
          "name": "role",
          "type": "bytes32"
        },
        {
          "indexed": true,
          "internalType": "address",
          "name": "account",
          "type": "address"
        },
        {
          "indexed": true,
          "internalType": "address",
          "name": "sender",
          "type": "address"
        }
      ],
      "name": "RoleGranted",
      "type": "event"
    },
    {
      "anonymous": false,
      "inputs": [
        {
          "indexed": true,
          "internalType": "bytes32",
          "name": "role",
          "type": "bytes32"
        },
        {
          "indexed": true,
          "internalType": "address",
          "name": "account",
          "type": "address"
        },
        {
          "indexed": true,
          "internalType": "address",
          "name": "sender",
          "type": "address"
        }
      ],
      "name": "RoleRevoked",
      "type": "event"
    },
    {
      "anonymous": false,
      "inputs": [
        {
          "indexed": true,
          "internalType": "address",
          "name": "from",
          "type": "address"
        },
        {
          "indexed": true,
          "internalType": "address",
          "name": "to",
          "type": "address"
        },
        {
          "indexed": false,
          "internalType": "uint256",
          "name": "value",
          "type": "uint256"
        }
      ],
      "name": "Transfer",
      "type": "event"
    },
    {
      "inputs": [],
      "name": "BURNER_ROLE",
      "outputs": [
        {
          "internalType": "bytes32",
          "name": "",
          "type": "bytes32"
        }
      ],
      "stateMutability": "view",
      "type": "function"
    },
    {
      "inputs": [],
      "name": "DEFAULT_ADMIN_ROLE",
      "outputs": [
        {
          "internalType": "bytes32",
          "name": "",
          "type": "bytes32"
        }
      ],
      "stateMutability": "view",
      "type": "function"
    },
    {
      "inputs": [],
      "name": "MINTER_ROLE",
      "outputs": [
        {
          "internalType": "bytes32",
          "name": "",
          "type": "bytes32"
        }
      ],
      "stateMutability": "view",
      "type": "function"
    },
    {
      "inputs": [],
      "name": "acceptDefaultAdminTransfer",
      "outputs": [],
      "stateMutability": "nonpayable",
      "type": "function"
    },
    {
      "inputs": [
        {
          "internalType": "address",
          "name": "owner",
          "type": "address"
        },
        {
          "internalType": "address",
          "name": "spender",
          "type": "address"
        }
      ],
      "name": "allowance",
      "outputs": [
        {
          "internalType": "uint256",
          "name": "",
          "type": "uint256"
        }
      ],
      "stateMutability": "view",
      "type": "function"
    },
    {
      "inputs": [
        {
          "internalType": "address",
          "name": "spender",
          "type": "address"
        },
        {
          "internalType": "uint256",
          "name": "value",
          "type": "uint256"
        }
      ],
      "name": "approve",
      "outputs": [
        {
          "internalType": "bool",
          "name": "",
          "type": "bool"
        }
      ],
      "stateMutability": "nonpayable",
      "type": "function"
    },
    {
      "inputs": [
        {
          "internalType": "address",
          "name": "account",
          "type": "address"
        }
      ],
      "name": "balanceOf",
      "outputs": [
        {
          "internalType": "uint256",
          "name": "",
          "type": "uint256"
        }
      ],
      "stateMutability": "view",
      "type": "function"
    },
    {
      "inputs": [
        {
          "internalType": "address",
          "name": "newAdmin",
          "type": "address"
        }
      ],
      "name": "beginDefaultAdminTransfer",
      "outputs": [],
      "stateMutability": "nonpayable",
      "type": "function"
    },
    {
      "inputs": [
        {
          "internalType": "address",
          "name": "from",
          "type": "address"
        },
        {
          "internalType": "uint256",
          "name": "amount",
          "type": "uint256"
        }
      ],
      "name": "burnToken",
      "outputs": [],
      "stateMutability": "nonpayable",
      "type": "function"
    },
    {
      "inputs": [],
      "name": "cancelDefaultAdminTransfer",
      "outputs": [],
      "stateMutability": "nonpayable",
      "type": "function"
    },
    {
      "inputs": [
        {
          "internalType": "uint48",
          "name": "newDelay",
          "type": "uint48"
        }
      ],
      "name": "changeDefaultAdminDelay",
      "outputs": [],
      "stateMutability": "nonpayable",
      "type": "function"
    },
    {
      "inputs": [],
      "name": "decimals",
      "outputs": [
        {
          "internalType": "uint8",
          "name": "",
          "type": "uint8"
        }
      ],
      "stateMutability": "view",
      "type": "function"
    },
    {
      "inputs": [],
      "name": "defaultAdmin",
      "outputs": [
        {
          "internalType": "address",
          "name": "",
          "type": "address"
        }
      ],
      "stateMutability": "view",
      "type": "function"
    },
    {
      "inputs": [],
      "name": "defaultAdminDelay",
      "outputs": [
        {
          "internalType": "uint48",
          "name": "",
          "type": "uint48"
        }
      ],
      "stateMutability": "view",
      "type": "function"
    },
    {
      "inputs": [],
      "name": "defaultAdminDelayIncreaseWait",
      "outputs": [
        {
          "internalType": "uint48",
          "name": "",
          "type": "uint48"
        }
      ],
      "stateMutability": "view",
      "type": "function"
    },
    {
      "inputs": [
        {
          "internalType": "bytes32",
          "name": "role",
          "type": "bytes32"
        }
      ],
      "name": "getRoleAdmin",
      "outputs": [
        {
          "internalType": "bytes32",
          "name": "",
          "type": "bytes32"
        }
      ],
      "stateMutability": "view",
      "type": "function"
    },
    {
      "inputs": [
        {
          "internalType": "bytes32",
          "name": "role",
          "type": "bytes32"
        },
        {
          "internalType": "address",
          "name": "account",
          "type": "address"
        }
      ],
      "name": "grantRole",
      "outputs": [],
      "stateMutability": "nonpayable",
      "type": "function"
    },
    {
      "inputs": [
        {
          "internalType": "bytes32",
          "name": "role",
          "type": "bytes32"
        },
        {
          "internalType": "address",
          "name": "account",
          "type": "address"
        }
      ],
      "name": "hasRole",
      "outputs": [
        {
          "internalType": "bool",
          "name": "",
          "type": "bool"
        }
      ],
      "stateMutability": "view",
      "type": "function"
    },
    {
      "inputs": [],
      "name": "name",
      "outputs": [
        {
          "internalType": "string",
          "name": "",
          "type": "string"
        }
      ],
      "stateMutability": "view",
      "type": "function"
    },
    {
      "inputs": [],
      "name": "owner",
      "outputs": [
        {
          "internalType": "address",
          "name": "",
          "type": "address"
        }
      ],
      "stateMutability": "view",
      "type": "function"
    },
    {
      "inputs": [],
      "name": "pendingDefaultAdmin",
      "outputs": [
        {
          "internalType": "address",
          "name": "newAdmin",
          "type": "address"
        },
        {
          "internalType": "uint48",
          "name": "schedule",
          "type": "uint48"
        }
      ],
      "stateMutability": "view",
      "type": "function"
    },
    {
      "inputs": [],
      "name": "pendingDefaultAdminDelay",
      "outputs": [
        {
          "internalType": "uint48",
          "name": "newDelay",
          "type": "uint48"
        },
        {
          "internalType": "uint48",
          "name": "schedule",
          "type": "uint48"
        }
      ],
      "stateMutability": "view",
      "type": "function"
    },
    {
      "inputs": [
        {
          "internalType": "bytes32",
          "name": "role",
          "type": "bytes32"
        },
        {
          "internalType": "address",
          "name": "account",
          "type": "address"
        }
      ],
      "name": "renounceRole",
      "outputs": [],
      "stateMutability": "nonpayable",
      "type": "function"
    },
    {
      "inputs": [
        {
          "internalType": "bytes32",
          "name": "role",
          "type": "bytes32"
        },
        {
          "internalType": "address",
          "name": "account",
          "type": "address"
        }
      ],
      "name": "revokeRole",
      "outputs": [],
      "stateMutability": "nonpayable",
      "type": "function"
    },
    {
      "inputs": [],
      "name": "rollbackDefaultAdminDelay",
      "outputs": [],
      "stateMutability": "nonpayable",
      "type": "function"
    },
    {
      "inputs": [
        {
          "internalType": "bytes4",
          "name": "interfaceId",
          "type": "bytes4"
        }
      ],
      "name": "supportsInterface",
      "outputs": [
        {
          "internalType": "bool",
          "name": "",
          "type": "bool"
        }
      ],
      "stateMutability": "view",
      "type": "function"
    },
    {
      "inputs": [],
      "name": "symbol",
      "outputs": [
        {
          "internalType": "string",
          "name": "",
          "type": "string"
        }
      ],
      "stateMutability": "view",
      "type": "function"
    },
    {
      "inputs": [],
      "name": "totalSupply",
      "outputs": [
        {
          "internalType": "uint256",
          "name": "",
          "type": "uint256"
        }
      ],
      "stateMutability": "view",
      "type": "function"
    },
    {
      "inputs": [
        {
          "internalType": "address",
          "name": "to",
          "type": "address"
        },
        {
          "internalType": "uint256",
          "name": "value",
          "type": "uint256"
        }
      ],
      "name": "transfer",
      "outputs": [
        {
          "internalType": "bool",
          "name": "",
          "type": "bool"
        }
      ],
      "stateMutability": "nonpayable",
      "type": "function"
    },
    {
      "inputs": [
        {
          "internalType": "address",
          "name": "from",
          "type": "address"
        },
        {
          "internalType": "address",
          "name": "to",
          "type": "address"
        },
        {
          "internalType": "uint256",
          "name": "value",
          "type": "uint256"
        }
      ],
      "name": "transferFrom",
      "outputs": [
        {
          "internalType": "bool",
          "name": "",
          "type": "bool"
        }
      ],
      "stateMutability": "nonpayable",
      "type": "function"
    }
  ],
  "transactionHash": "0xc19f11574d6c0b3ee15b5a6447694745b453eb3f2a28d7438e935525efb55750",
  "args": [
    "0x167e7497191346211dBC6e9f64c9A736eC84C689",
    "0xE11Cd5244DE68D90755a1d142Ab446A4D17cDC10",
    1000000000
  ],
  "numDeployments": 2,
  "solcInputHash": "35af03a36a7e9c8f9f695ea8e71f7eb4",
  "bytecode": "0x60806040523480156200001157600080fd5b5060405162001a9938038062001a99833981016040819052620000349162000403565b60008360405180604001604052806009815260200168447265616447616e6760b81b81525060405180604001604052806002815260200161444760f01b8152508160039081620000859190620004e9565b506004620000948282620004e9565b5050506001600160a01b038116620000c757604051636116401160e11b8152600060048201526024015b60405180910390fd5b600680546001600160d01b0316600160d01b65ffffffffffff851602179055620000f36000826200014d565b505050620001178282670de0b6b3a7640000620001119190620005cb565b620001c3565b620001437f3c11d16cbaffd01df69ce1c404f6340ee057498f5f00246190ea54220576a848846200014d565b50505050620005fb565b600082620001ae5760006200016a6007546001600160a01b031690565b6001600160a01b0316146200019257604051631fe1e13d60e11b815260040160405180910390fd5b600780546001600160a01b0319166001600160a01b0384161790555b620001ba838362000201565b90505b92915050565b6001600160a01b038216620001ef5760405163ec442f0560e01b815260006004820152602401620000be565b620001fd60008383620002b3565b5050565b60008281526005602090815260408083206001600160a01b038516845290915281205460ff16620002aa5760008381526005602090815260408083206001600160a01b03861684529091529020805460ff19166001179055620002613390565b6001600160a01b0316826001600160a01b0316847f2f8788117e7eff1d82e926ec794901d17c78024a50270940304540a733656f0d60405160405180910390a4506001620001bd565b506000620001bd565b6001600160a01b038316620002e2578060026000828254620002d69190620005e5565b90915550620003569050565b6001600160a01b03831660009081526020819052604090205481811015620003375760405163391434e360e21b81526001600160a01b03851660048201526024810182905260448101839052606401620000be565b6001600160a01b03841660009081526020819052604090209082900390555b6001600160a01b038216620003745760028054829003905562000393565b6001600160a01b03821660009081526020819052604090208054820190555b816001600160a01b0316836001600160a01b03167fddf252ad1be2c89b69c2b068fc378daa952ba7f163c4a11628f55a4df523b3ef83604051620003d991815260200190565b60405180910390a3505050565b80516001600160a01b0381168114620003fe57600080fd5b919050565b6000806000606084860312156200041957600080fd5b6200042484620003e6565b92506200043460208501620003e6565b9150604084015190509250925092565b634e487b7160e01b600052604160045260246000fd5b600181811c908216806200046f57607f821691505b6020821081036200049057634e487b7160e01b600052602260045260246000fd5b50919050565b601f821115620004e457600081815260208120601f850160051c81016020861015620004bf5750805b601f850160051c820191505b81811015620004e057828155600101620004cb565b5050505b505050565b81516001600160401b0381111562000505576200050562000444565b6200051d816200051684546200045a565b8462000496565b602080601f8311600181146200055557600084156200053c5750858301515b600019600386901b1c1916600185901b178555620004e0565b600085815260208120601f198616915b82811015620005865788860151825594840194600190910190840162000565565b5085821015620005a55787850151600019600388901b60f8161c191681555b5050505050600190811b01905550565b634e487b7160e01b600052601160045260246000fd5b8082028115828204841417620001bd57620001bd620005b5565b80820180821115620001bd57620001bd620005b5565b61148e806200060b6000396000f3fe608060405234801561001057600080fd5b50600436106101da5760003560e01c806384ef8ffc11610104578063cc8463c8116100a2578063d539139311610071578063d539139314610423578063d547741f1461044a578063d602b9fd1461045d578063dd62ed3e1461046557600080fd5b8063cc8463c8146103d2578063cefc1429146103da578063cf6eefb7146103e2578063d1df306c1461041057600080fd5b806395d89b41116100de57806395d89b4114610388578063a1eda53c14610390578063a217fddf146103b7578063a9059cbb146103bf57600080fd5b806384ef8ffc146103485780638da5cb5b1461036d57806391d148541461037557600080fd5b8063248a9ca31161017c57806336568abe1161014b57806336568abe146102e6578063634e93da146102f9578063649a5ec71461030c57806370a082311461031f57600080fd5b8063248a9ca31461027a578063282c51f31461029d5780632f2ff15d146102c4578063313ce567146102d757600080fd5b8063095ea7b3116101b8578063095ea7b3146102385780630aa6220b1461024b57806318160ddd1461025557806323b872dd1461026757600080fd5b806301ffc9a7146101df578063022d63fb1461020757806306fdde0314610223575b600080fd5b6101f26101ed366004611204565b61049e565b60405190151581526020015b60405180910390f35b620697805b60405165ffffffffffff90911681526020016101fe565b61022b6104c9565b6040516101fe919061122e565b6101f2610246366004611298565b61055b565b610253610573565b005b6002545b6040519081526020016101fe565b6101f26102753660046112c2565b610589565b6102596102883660046112fe565b60009081526005602052604090206001015490565b6102597f3c11d16cbaffd01df69ce1c404f6340ee057498f5f00246190ea54220576a84881565b6102536102d2366004611317565b6105ad565b604051601281526020016101fe565b6102536102f4366004611317565b6105d9565b610253610307366004611343565b610685565b61025361031a36600461135e565b610699565b61025961032d366004611343565b6001600160a01b031660009081526020819052604090205490565b6007546001600160a01b03165b6040516001600160a01b0390911681526020016101fe565b6103556106ad565b6101f2610383366004611317565b6106c6565b61022b6106f1565b610398610700565b6040805165ffffffffffff9384168152929091166020830152016101fe565b610259600081565b6101f26103cd366004611298565b610754565b61020c610762565b6102536107c1565b6103ea610801565b604080516001600160a01b03909316835265ffffffffffff9091166020830152016101fe565b61025361041e366004611298565b610822565b6102597f9f2df0fed2c77648de5860a4cc508cd0818c85b8b8a1ab4ceeef8d981c8956a681565b610253610458366004611317565b61089b565b6102536108c3565b610259610473366004611386565b6001600160a01b03918216600090815260016020908152604080832093909416825291909152205490565b60006001600160e01b031982166318a4c3c360e11b14806104c357506104c3826108d6565b92915050565b6060600380546104d8906113b0565b80601f0160208091040260200160405190810160405280929190818152602001828054610504906113b0565b80156105515780601f1061052657610100808354040283529160200191610551565b820191906000526020600020905b81548152906001019060200180831161053457829003601f168201915b5050505050905090565b60003361056981858561090b565b5060019392505050565b600061057e8161091d565b610586610927565b50565b600033610597858285610934565b6105a28585856109b2565b506001949350505050565b816105cb57604051631fe1e13d60e11b815260040160405180910390fd5b6105d58282610a11565b5050565b811580156105f457506007546001600160a01b038281169116145b1561067b57600080610604610801565b90925090506001600160a01b038216151580610626575065ffffffffffff8116155b8061063957504265ffffffffffff821610155b15610666576040516319ca5ebb60e01b815265ffffffffffff821660048201526024015b60405180910390fd5b50506006805465ffffffffffff60a01b191690555b6105d58282610a36565b60006106908161091d565b6105d582610a69565b60006106a48161091d565b6105d582610adc565b60006106c16007546001600160a01b031690565b905090565b60009182526005602090815260408084206001600160a01b0393909316845291905290205460ff1690565b6060600480546104d8906113b0565b600754600090600160d01b900465ffffffffffff16801515801561072c57504265ffffffffffff821610155b6107385760008061074c565b600754600160a01b900465ffffffffffff16815b915091509091565b6000336105698185856109b2565b600754600090600160d01b900465ffffffffffff16801515801561078d57504265ffffffffffff8216105b6107a857600654600160d01b900465ffffffffffff166107bb565b600754600160a01b900465ffffffffffff165b91505090565b60006107cb610801565b509050336001600160a01b038216146107f957604051636116401160e11b815233600482015260240161065d565b610586610b4c565b6006546001600160a01b03811691600160a01b90910465ffffffffffff1690565b61084c7f3c11d16cbaffd01df69ce1c404f6340ee057498f5f00246190ea54220576a848336106c6565b6108915760405162461bcd60e51b815260206004820152601660248201527521b0b63632b91034b9903737ba103090313ab93732b960511b604482015260640161065d565b6105d58282610be5565b816108b957604051631fe1e13d60e11b815260040160405180910390fd5b6105d58282610c1b565b60006108ce8161091d565b610586610c40565b60006001600160e01b03198216637965db0b60e01b14806104c357506301ffc9a760e01b6001600160e01b03198316146104c3565b6109188383836001610c4b565b505050565b6105868133610d20565b610932600080610d59565b565b6001600160a01b0383811660009081526001602090815260408083209386168352929052205460001981146109ac578181101561099d57604051637dc7a0d960e11b81526001600160a01b0384166004820152602481018290526044810183905260640161065d565b6109ac84848484036000610c4b565b50505050565b6001600160a01b0383166109dc57604051634b637e8f60e11b81526000600482015260240161065d565b6001600160a01b038216610a065760405163ec442f0560e01b81526000600482015260240161065d565b610918838383610e19565b600082815260056020526040902060010154610a2c8161091d565b6109ac8383610f43565b6001600160a01b0381163314610a5f5760405163334bd91960e11b815260040160405180910390fd5b6109188282610fb2565b6000610a73610762565b610a7c42610fef565b610a869190611400565b9050610a928282611026565b60405165ffffffffffff821681526001600160a01b038316907f3377dc44241e779dd06afab5b788a35ca5f3b778836e2990bdb26a2a4b2e5ed69060200160405180910390a25050565b6000610ae7826110a5565b610af042610fef565b610afa9190611400565b9050610b068282610d59565b6040805165ffffffffffff8085168252831660208201527ff1038c18cf84a56e432fdbfaf746924b7ea511dfe03a6506a0ceba4888788d9b910160405180910390a15050565b600080610b57610801565b91509150610b6c8165ffffffffffff16151590565b1580610b8057504265ffffffffffff821610155b15610ba8576040516319ca5ebb60e01b815265ffffffffffff8216600482015260240161065d565b610bc46000610bbf6007546001600160a01b031690565b610fb2565b50610bd0600083610f43565b5050600680546001600160d01b031916905550565b6001600160a01b038216610c0f57604051634b637e8f60e11b81526000600482015260240161065d565b6105d582600083610e19565b600082815260056020526040902060010154610c368161091d565b6109ac8383610fb2565b610932600080611026565b6001600160a01b038416610c755760405163e602df0560e01b81526000600482015260240161065d565b6001600160a01b038316610c9f57604051634a1406b160e11b81526000600482015260240161065d565b6001600160a01b03808516600090815260016020908152604080832093871683529290522082905580156109ac57826001600160a01b0316846001600160a01b03167f8c5be1e5ebec7d5bd14f71427d1e84f3dd0314c0f7b2291e5b200ac8c7c3b92584604051610d1291815260200190565b60405180910390a350505050565b610d2a82826106c6565b6105d55760405163e2517d3f60e01b81526001600160a01b03821660048201526024810183905260440161065d565b600754600160d01b900465ffffffffffff168015610ddc574265ffffffffffff82161015610db257600754600680546001600160d01b0316600160a01b90920465ffffffffffff16600160d01b02919091179055610ddc565b6040517f2b1fa2edafe6f7b9e97c1a9e0c3660e645beb2dcaa2d45bdbf9beaf5472e1ec590600090a15b50600780546001600160a01b0316600160a01b65ffffffffffff948516026001600160d01b031617600160d01b9290931691909102919091179055565b6001600160a01b038316610e44578060026000828254610e399190611426565b90915550610eb69050565b6001600160a01b03831660009081526020819052604090205481811015610e975760405163391434e360e21b81526001600160a01b0385166004820152602481018290526044810183905260640161065d565b6001600160a01b03841660009081526020819052604090209082900390555b6001600160a01b038216610ed257600280548290039055610ef1565b6001600160a01b03821660009081526020819052604090208054820190555b816001600160a01b0316836001600160a01b03167fddf252ad1be2c89b69c2b068fc378daa952ba7f163c4a11628f55a4df523b3ef83604051610f3691815260200190565b60405180910390a3505050565b600082610fa1576000610f5e6007546001600160a01b031690565b6001600160a01b031614610f8557604051631fe1e13d60e11b815260040160405180910390fd5b600780546001600160a01b0319166001600160a01b0384161790555b610fab83836110ed565b9392505050565b600082158015610fcf57506007546001600160a01b038381169116145b15610fe557600780546001600160a01b03191690555b610fab8383611181565b600065ffffffffffff821115611022576040516306dfcc6560e41b8152603060048201526024810183905260440161065d565b5090565b6000611030610801565b6006805465ffffffffffff8616600160a01b026001600160d01b03199091166001600160a01b03881617179055915061107290508165ffffffffffff16151590565b15610918576040517f8886ebfc4259abdbc16601dd8fb5678e54878f47b3c34836cfc51154a960510990600090a1505050565b6000806110b0610762565b90508065ffffffffffff168365ffffffffffff16116110d8576110d38382611439565b610fab565b610fab65ffffffffffff8416620697806111ee565b60006110f983836106c6565b6111795760008381526005602090815260408083206001600160a01b03861684529091529020805460ff191660011790556111313390565b6001600160a01b0316826001600160a01b0316847f2f8788117e7eff1d82e926ec794901d17c78024a50270940304540a733656f0d60405160405180910390a45060016104c3565b5060006104c3565b600061118d83836106c6565b156111795760008381526005602090815260408083206001600160a01b0386168085529252808320805460ff1916905551339286917ff6391f5c32d9c69d2a47ea670b442974b53935d1edc7fd64eb21e047a839171b9190a45060016104c3565b60008183106111fd5781610fab565b5090919050565b60006020828403121561121657600080fd5b81356001600160e01b031981168114610fab57600080fd5b600060208083528351808285015260005b8181101561125b5785810183015185820160400152820161123f565b506000604082860101526040601f19601f8301168501019250505092915050565b80356001600160a01b038116811461129357600080fd5b919050565b600080604083850312156112ab57600080fd5b6112b48361127c565b946020939093013593505050565b6000806000606084860312156112d757600080fd5b6112e08461127c565b92506112ee6020850161127c565b9150604084013590509250925092565b60006020828403121561131057600080fd5b5035919050565b6000806040838503121561132a57600080fd5b8235915061133a6020840161127c565b90509250929050565b60006020828403121561135557600080fd5b610fab8261127c565b60006020828403121561137057600080fd5b813565ffffffffffff81168114610fab57600080fd5b6000806040838503121561139957600080fd5b6113a28361127c565b915061133a6020840161127c565b600181811c908216806113c457607f821691505b6020821081036113e457634e487b7160e01b600052602260045260246000fd5b50919050565b634e487b7160e01b600052601160045260246000fd5b65ffffffffffff81811683821601908082111561141f5761141f6113ea565b5092915050565b808201808211156104c3576104c36113ea565b65ffffffffffff82811682821603908082111561141f5761141f6113ea56fea26469706673582212201669ebc39dbf31396aca66f2e86cc378bc038ea48397548bc7664d65247bad8864736f6c63430008140033",
  "devdoc": {
    "errors": {
      "AccessControlBadConfirmation()": [
        {
          "details": "The caller of a function is not the expected one. NOTE: Don't confuse with {AccessControlUnauthorizedAccount}."
        }
      ],
      "AccessControlEnforcedDefaultAdminDelay(uint48)": [
        {
          "details": "The delay for transferring the default admin delay is enforced and the operation must wait until `schedule`. NOTE: `schedule` can be 0 indicating there's no transfer scheduled."
        }
      ],
      "AccessControlEnforcedDefaultAdminRules()": [
        {
          "details": "At least one of the following rules was violated: - The `DEFAULT_ADMIN_ROLE` must only be managed by itself. - The `DEFAULT_ADMIN_ROLE` must only be held by one account at the time. - Any `DEFAULT_ADMIN_ROLE` transfer must be in two delayed steps."
        }
      ],
      "AccessControlInvalidDefaultAdmin(address)": [
        {
          "details": "The new default admin is not a valid default admin."
        }
      ],
      "AccessControlUnauthorizedAccount(address,bytes32)": [
        {
          "details": "The `account` is missing a role."
        }
      ],
      "ERC20InsufficientAllowance(address,uint256,uint256)": [
        {
          "details": "Indicates a failure with the `spender`s `allowance`. Used in transfers.",
          "params": {
            "allowance": "Amount of tokens a `spender` is allowed to operate with.",
            "needed": "Minimum amount required to perform a transfer.",
            "spender": "Address that may be allowed to operate on tokens without being their owner."
          }
        }
      ],
      "ERC20InsufficientBalance(address,uint256,uint256)": [
        {
          "details": "Indicates an error related to the current `balance` of a `sender`. Used in transfers.",
          "params": {
            "balance": "Current balance for the interacting account.",
            "needed": "Minimum amount required to perform a transfer.",
            "sender": "Address whose tokens are being transferred."
          }
        }
      ],
      "ERC20InvalidApprover(address)": [
        {
          "details": "Indicates a failure with the `approver` of a token to be approved. Used in approvals.",
          "params": {
            "approver": "Address initiating an approval operation."
          }
        }
      ],
      "ERC20InvalidReceiver(address)": [
        {
          "details": "Indicates a failure with the token `receiver`. Used in transfers.",
          "params": {
            "receiver": "Address to which tokens are being transferred."
          }
        }
      ],
      "ERC20InvalidSender(address)": [
        {
          "details": "Indicates a failure with the token `sender`. Used in transfers.",
          "params": {
            "sender": "Address whose tokens are being transferred."
          }
        }
      ],
      "ERC20InvalidSpender(address)": [
        {
          "details": "Indicates a failure with the `spender` to be approved. Used in approvals.",
          "params": {
            "spender": "Address that may be allowed to operate on tokens without being their owner."
          }
        }
      ],
      "SafeCastOverflowedUintDowncast(uint8,uint256)": [
        {
          "details": "Value doesn't fit in an uint of `bits` size."
        }
      ]
    },
    "events": {
      "Approval(address,address,uint256)": {
        "details": "Emitted when the allowance of a `spender` for an `owner` is set by a call to {approve}. `value` is the new allowance."
      },
      "DefaultAdminDelayChangeCanceled()": {
        "details": "Emitted when a {pendingDefaultAdminDelay} is reset if its schedule didn't pass."
      },
      "DefaultAdminDelayChangeScheduled(uint48,uint48)": {
        "details": "Emitted when a {defaultAdminDelay} change is started, setting `newDelay` as the next delay to be applied between default admin transfer after `effectSchedule` has passed."
      },
      "DefaultAdminTransferCanceled()": {
        "details": "Emitted when a {pendingDefaultAdmin} is reset if it was never accepted, regardless of its schedule."
      },
      "DefaultAdminTransferScheduled(address,uint48)": {
        "details": "Emitted when a {defaultAdmin} transfer is started, setting `newAdmin` as the next address to become the {defaultAdmin} by calling {acceptDefaultAdminTransfer} only after `acceptSchedule` passes."
      },
      "RoleAdminChanged(bytes32,bytes32,bytes32)": {
        "details": "Emitted when `newAdminRole` is set as ``role``'s admin role, replacing `previousAdminRole` `DEFAULT_ADMIN_ROLE` is the starting admin for all roles, despite {RoleAdminChanged} not being emitted signaling this."
      },
      "RoleGranted(bytes32,address,address)": {
        "details": "Emitted when `account` is granted `role`. `sender` is the account that originated the contract call, an admin role bearer except when using {AccessControl-_setupRole}."
      },
      "RoleRevoked(bytes32,address,address)": {
        "details": "Emitted when `account` is revoked `role`. `sender` is the account that originated the contract call:   - if using `revokeRole`, it is the admin role bearer   - if using `renounceRole`, it is the role bearer (i.e. `account`)"
      },
      "Transfer(address,address,uint256)": {
        "details": "Emitted when `value` tokens are moved from one account (`from`) to another (`to`). Note that `value` may be zero."
      }
    },
    "kind": "dev",
    "methods": {
      "acceptDefaultAdminTransfer()": {
        "details": "Completes a {defaultAdmin} transfer previously started with {beginDefaultAdminTransfer}. After calling the function: - `DEFAULT_ADMIN_ROLE` should be granted to the caller. - `DEFAULT_ADMIN_ROLE` should be revoked from the previous holder. - {pendingDefaultAdmin} should be reset to zero values. Requirements: - Only can be called by the {pendingDefaultAdmin}'s `newAdmin`. - The {pendingDefaultAdmin}'s `acceptSchedule` should've passed."
      },
      "allowance(address,address)": {
        "details": "See {IERC20-allowance}."
      },
      "approve(address,uint256)": {
        "details": "See {IERC20-approve}. NOTE: If `value` is the maximum `uint256`, the allowance is not updated on `transferFrom`. This is semantically equivalent to an infinite approval. Requirements: - `spender` cannot be the zero address."
      },
      "balanceOf(address)": {
        "details": "See {IERC20-balanceOf}."
      },
      "beginDefaultAdminTransfer(address)": {
        "details": "Starts a {defaultAdmin} transfer by setting a {pendingDefaultAdmin} scheduled for acceptance after the current timestamp plus a {defaultAdminDelay}. Requirements: - Only can be called by the current {defaultAdmin}. Emits a DefaultAdminRoleChangeStarted event."
      },
      "cancelDefaultAdminTransfer()": {
        "details": "Cancels a {defaultAdmin} transfer previously started with {beginDefaultAdminTransfer}. A {pendingDefaultAdmin} not yet accepted can also be cancelled with this function. Requirements: - Only can be called by the current {defaultAdmin}. May emit a DefaultAdminTransferCanceled event."
      },
      "changeDefaultAdminDelay(uint48)": {
        "details": "Initiates a {defaultAdminDelay} update by setting a {pendingDefaultAdminDelay} scheduled for getting into effect after the current timestamp plus a {defaultAdminDelay}. This function guarantees that any call to {beginDefaultAdminTransfer} done between the timestamp this method is called and the {pendingDefaultAdminDelay} effect schedule will use the current {defaultAdminDelay} set before calling. The {pendingDefaultAdminDelay}'s effect schedule is defined in a way that waiting until the schedule and then calling {beginDefaultAdminTransfer} with the new delay will take at least the same as another {defaultAdmin} complete transfer (including acceptance). The schedule is designed for two scenarios: - When the delay is changed for a larger one the schedule is `block.timestamp + newDelay` capped by {defaultAdminDelayIncreaseWait}. - When the delay is changed for a shorter one, the schedule is `block.timestamp + (current delay - new delay)`. A {pendingDefaultAdminDelay} that never got into effect will be canceled in favor of a new scheduled change. Requirements: - Only can be called by the current {defaultAdmin}. Emits a DefaultAdminDelayChangeScheduled event and may emit a DefaultAdminDelayChangeCanceled event."
      },
      "decimals()": {
        "details": "Returns the number of decimals used to get its user representation. For example, if `decimals` equals `2`, a balance of `505` tokens should be displayed to a user as `5.05` (`505 / 10 ** 2`). Tokens usually opt for a value of 18, imitating the relationship between Ether and Wei. This is the default value returned by this function, unless it's overridden. NOTE: This information is only used for _display_ purposes: it in no way affects any of the arithmetic of the contract, including {IERC20-balanceOf} and {IERC20-transfer}."
      },
      "defaultAdmin()": {
        "details": "Returns the address of the current `DEFAULT_ADMIN_ROLE` holder."
      },
      "defaultAdminDelay()": {
        "details": "Returns the delay required to schedule the acceptance of a {defaultAdmin} transfer started. This delay will be added to the current timestamp when calling {beginDefaultAdminTransfer} to set the acceptance schedule. NOTE: If a delay change has been scheduled, it will take effect as soon as the schedule passes, making this function returns the new delay. See {changeDefaultAdminDelay}."
      },
      "defaultAdminDelayIncreaseWait()": {
        "details": "Maximum time in seconds for an increase to {defaultAdminDelay} (that is scheduled using {changeDefaultAdminDelay}) to take effect. Default to 5 days. When the {defaultAdminDelay} is scheduled to be increased, it goes into effect after the new delay has passed with the purpose of giving enough time for reverting any accidental change (i.e. using milliseconds instead of seconds) that may lock the contract. However, to avoid excessive schedules, the wait is capped by this function and it can be overrode for a custom {defaultAdminDelay} increase scheduling. IMPORTANT: Make sure to add a reasonable amount of time while overriding this value, otherwise, there's a risk of setting a high new delay that goes into effect almost immediately without the possibility of human intervention in the case of an input error (eg. set milliseconds instead of seconds)."
      },
      "getRoleAdmin(bytes32)": {
        "details": "Returns the admin role that controls `role`. See {grantRole} and {revokeRole}. To change a role's admin, use {_setRoleAdmin}."
      },
      "grantRole(bytes32,address)": {
        "details": "See {AccessControl-grantRole}. Reverts for `DEFAULT_ADMIN_ROLE`."
      },
      "hasRole(bytes32,address)": {
        "details": "Returns `true` if `account` has been granted `role`."
      },
      "name()": {
        "details": "Returns the name of the token."
      },
      "owner()": {
        "details": "See {IERC5313-owner}."
      },
      "pendingDefaultAdmin()": {
        "details": "Returns a tuple of a `newAdmin` and an accept schedule. After the `schedule` passes, the `newAdmin` will be able to accept the {defaultAdmin} role by calling {acceptDefaultAdminTransfer}, completing the role transfer. A zero value only in `acceptSchedule` indicates no pending admin transfer. NOTE: A zero address `newAdmin` means that {defaultAdmin} is being renounced."
      },
      "pendingDefaultAdminDelay()": {
        "details": "Returns a tuple of `newDelay` and an effect schedule. After the `schedule` passes, the `newDelay` will get into effect immediately for every new {defaultAdmin} transfer started with {beginDefaultAdminTransfer}. A zero value only in `effectSchedule` indicates no pending delay change. NOTE: A zero value only for `newDelay` means that the next {defaultAdminDelay} will be zero after the effect schedule."
      },
      "renounceRole(bytes32,address)": {
        "details": "See {AccessControl-renounceRole}. For the `DEFAULT_ADMIN_ROLE`, it only allows renouncing in two steps by first calling {beginDefaultAdminTransfer} to the `address(0)`, so it's required that the {pendingDefaultAdmin} schedule has also passed when calling this function. After its execution, it will not be possible to call `onlyRole(DEFAULT_ADMIN_ROLE)` functions. NOTE: Renouncing `DEFAULT_ADMIN_ROLE` will leave the contract without a {defaultAdmin}, thereby disabling any functionality that is only available for it, and the possibility of reassigning a non-administrated role."
      },
      "revokeRole(bytes32,address)": {
        "details": "See {AccessControl-revokeRole}. Reverts for `DEFAULT_ADMIN_ROLE`."
      },
      "rollbackDefaultAdminDelay()": {
        "details": "Cancels a scheduled {defaultAdminDelay} change. Requirements: - Only can be called by the current {defaultAdmin}. May emit a DefaultAdminDelayChangeCanceled event."
      },
      "supportsInterface(bytes4)": {
        "details": "See {IERC165-supportsInterface}."
      },
      "symbol()": {
        "details": "Returns the symbol of the token, usually a shorter version of the name."
      },
      "totalSupply()": {
        "details": "See {IERC20-totalSupply}."
      },
      "transfer(address,uint256)": {
        "details": "See {IERC20-transfer}. Requirements: - `to` cannot be the zero address. - the caller must have a balance of at least `value`."
      },
      "transferFrom(address,address,uint256)": {
        "details": "See {IERC20-transferFrom}. Emits an {Approval} event indicating the updated allowance. This is not required by the EIP. See the note at the beginning of {ERC20}. NOTE: Does not update the allowance if the current allowance is the maximum `uint256`. Requirements: - `from` and `to` cannot be the zero address. - `from` must have a balance of at least `value`. - the caller must have allowance for ``from``'s tokens of at least `value`."
      }
    },
    "version": 1
  },
  "userdoc": {
    "kind": "user",
    "methods": {},
    "version": 1
  },
  "storageLayout": {
    "storage": [
      {
        "astId": 1544,
        "contract": "contracts/DreadGangToken.sol:DGToken",
        "label": "_balances",
        "offset": 0,
        "slot": "0",
        "type": "t_mapping(t_address,t_uint256)"
      },
      {
        "astId": 1550,
        "contract": "contracts/DreadGangToken.sol:DGToken",
        "label": "_allowances",
        "offset": 0,
        "slot": "1",
        "type": "t_mapping(t_address,t_mapping(t_address,t_uint256))"
      },
      {
        "astId": 1552,
        "contract": "contracts/DreadGangToken.sol:DGToken",
        "label": "_totalSupply",
        "offset": 0,
        "slot": "2",
        "type": "t_uint256"
      },
      {
        "astId": 1554,
        "contract": "contracts/DreadGangToken.sol:DGToken",
        "label": "_name",
        "offset": 0,
        "slot": "3",
        "type": "t_string_storage"
      },
      {
        "astId": 1556,
        "contract": "contracts/DreadGangToken.sol:DGToken",
        "label": "_symbol",
        "offset": 0,
        "slot": "4",
        "type": "t_string_storage"
      },
      {
        "astId": 26,
        "contract": "contracts/DreadGangToken.sol:DGToken",
        "label": "_roles",
        "offset": 0,
        "slot": "5",
        "type": "t_mapping(t_bytes32,t_struct(RoleData)21_storage)"
      },
      {
        "astId": 548,
        "contract": "contracts/DreadGangToken.sol:DGToken",
        "label": "_pendingDefaultAdmin",
        "offset": 0,
        "slot": "6",
        "type": "t_address"
      },
      {
        "astId": 550,
        "contract": "contracts/DreadGangToken.sol:DGToken",
        "label": "_pendingDefaultAdminSchedule",
        "offset": 20,
        "slot": "6",
        "type": "t_uint48"
      },
      {
        "astId": 552,
        "contract": "contracts/DreadGangToken.sol:DGToken",
        "label": "_currentDelay",
        "offset": 26,
        "slot": "6",
        "type": "t_uint48"
      },
      {
        "astId": 554,
        "contract": "contracts/DreadGangToken.sol:DGToken",
        "label": "_currentDefaultAdmin",
        "offset": 0,
        "slot": "7",
        "type": "t_address"
      },
      {
        "astId": 556,
        "contract": "contracts/DreadGangToken.sol:DGToken",
        "label": "_pendingDelay",
        "offset": 20,
        "slot": "7",
        "type": "t_uint48"
      },
      {
        "astId": 558,
        "contract": "contracts/DreadGangToken.sol:DGToken",
        "label": "_pendingDelaySchedule",
        "offset": 26,
        "slot": "7",
        "type": "t_uint48"
      }
    ],
    "types": {
      "t_address": {
        "encoding": "inplace",
        "label": "address",
        "numberOfBytes": "20"
      },
      "t_bool": {
        "encoding": "inplace",
        "label": "bool",
        "numberOfBytes": "1"
      },
      "t_bytes32": {
        "encoding": "inplace",
        "label": "bytes32",
        "numberOfBytes": "32"
      },
      "t_mapping(t_address,t_bool)": {
        "encoding": "mapping",
        "key": "t_address",
        "label": "mapping(address => bool)",
        "numberOfBytes": "32",
        "value": "t_bool"
      },
      "t_mapping(t_address,t_mapping(t_address,t_uint256))": {
        "encoding": "mapping",
        "key": "t_address",
        "label": "mapping(address => mapping(address => uint256))",
        "numberOfBytes": "32",
        "value": "t_mapping(t_address,t_uint256)"
      },
      "t_mapping(t_address,t_uint256)": {
        "encoding": "mapping",
        "key": "t_address",
        "label": "mapping(address => uint256)",
        "numberOfBytes": "32",
        "value": "t_uint256"
      },
      "t_mapping(t_bytes32,t_struct(RoleData)21_storage)": {
        "encoding": "mapping",
        "key": "t_bytes32",
        "label": "mapping(bytes32 => struct AccessControl.RoleData)",
        "numberOfBytes": "32",
        "value": "t_struct(RoleData)21_storage"
      },
      "t_string_storage": {
        "encoding": "bytes",
        "label": "string",
        "numberOfBytes": "32"
      },
      "t_struct(RoleData)21_storage": {
        "encoding": "inplace",
        "label": "struct AccessControl.RoleData",
        "members": [
          {
            "astId": 18,
            "contract": "contracts/DreadGangToken.sol:DGToken",
            "label": "hasRole",
            "offset": 0,
            "slot": "0",
            "type": "t_mapping(t_address,t_bool)"
          },
          {
            "astId": 20,
            "contract": "contracts/DreadGangToken.sol:DGToken",
            "label": "adminRole",
            "offset": 0,
            "slot": "1",
            "type": "t_bytes32"
          }
        ],
        "numberOfBytes": "64"
      },
      "t_uint256": {
        "encoding": "inplace",
        "label": "uint256",
        "numberOfBytes": "32"
      },
      "t_uint48": {
        "encoding": "inplace",
        "label": "uint48",
        "numberOfBytes": "6"
      }
    }
  }
}